{
    "_format": "hh-sol-artifact-1",
    "contractName": "DecryptMarketplace",
    "sourceName": "contracts/Marketplace/DecryptMarketplace.sol",
    "abi": [
        {
            "anonymous": false,
            "inputs": [
                {
                    "indexed": false,
                    "internalType": "address",
                    "name": "previousAdmin",
                    "type": "address"
                },
                {
                    "indexed": false,
                    "internalType": "address",
                    "name": "newAdmin",
                    "type": "address"
                }
            ],
            "name": "AdminChanged",
            "type": "event"
        },
        {
            "anonymous": false,
            "inputs": [
                {
                    "indexed": true,
                    "internalType": "address",
                    "name": "beacon",
                    "type": "address"
                }
            ],
            "name": "BeaconUpgraded",
            "type": "event"
        },
        {
            "anonymous": false,
            "inputs": [
                {
                    "indexed": false,
                    "internalType": "address",
                    "name": "buyer",
                    "type": "address"
                },
                {
                    "indexed": false,
                    "internalType": "address",
                    "name": "seller",
                    "type": "address"
                },
                {
                    "indexed": false,
                    "internalType": "address",
                    "name": "tokenAddress",
                    "type": "address"
                },
                {
                    "indexed": false,
                    "internalType": "uint256[]",
                    "name": "tokenId",
                    "type": "uint256[]"
                },
                {
                    "indexed": false,
                    "internalType": "uint256",
                    "name": "amount",
                    "type": "uint256"
                }
            ],
            "name": "BundleSale",
            "type": "event"
        },
        {
            "anonymous": false,
            "inputs": [
                {
                    "indexed": false,
                    "internalType": "address",
                    "name": "seller",
                    "type": "address"
                },
                {
                    "indexed": false,
                    "internalType": "address",
                    "name": "tokenAddress",
                    "type": "address"
                },
                {
                    "indexed": false,
                    "internalType": "uint256",
                    "name": "tokenId",
                    "type": "uint256"
                },
                {
                    "indexed": false,
                    "internalType": "uint256",
                    "name": "listingType",
                    "type": "uint256"
                }
            ],
            "name": "CancelledOrder",
            "type": "event"
        },
        {
            "anonymous": false,
            "inputs": [
                {
                    "indexed": false,
                    "internalType": "address",
                    "name": "tokenAddress",
                    "type": "address"
                },
                {
                    "indexed": false,
                    "internalType": "address",
                    "name": "royaltyReceiver",
                    "type": "address"
                },
                {
                    "components": [
                        {
                            "internalType": "address",
                            "name": "collaborator",
                            "type": "address"
                        },
                        {
                            "internalType": "uint256",
                            "name": "share",
                            "type": "uint256"
                        }
                    ],
                    "indexed": false,
                    "internalType": "struct RoyaltyShare[]",
                    "name": "collaborators",
                    "type": "tuple[]"
                },
                {
                    "indexed": false,
                    "internalType": "uint256",
                    "name": "royaltyAmount",
                    "type": "uint256"
                }
            ],
            "name": "DistributedRoyaltyPaid",
            "type": "event"
        },
        {
            "anonymous": false,
            "inputs": [
                {
                    "indexed": false,
                    "internalType": "uint256",
                    "name": "newMarketplaceFee",
                    "type": "uint256"
                }
            ],
            "name": "NewMarketplaceFee",
            "type": "event"
        },
        {
            "anonymous": false,
            "inputs": [
                {
                    "indexed": false,
                    "internalType": "uint256",
                    "name": "newRoyaltyLimit",
                    "type": "uint256"
                }
            ],
            "name": "NewRoyaltyLimit",
            "type": "event"
        },
        {
            "anonymous": false,
            "inputs": [
                {
                    "indexed": true,
                    "internalType": "address",
                    "name": "previousOwner",
                    "type": "address"
                },
                {
                    "indexed": true,
                    "internalType": "address",
                    "name": "newOwner",
                    "type": "address"
                }
            ],
            "name": "OwnershipTransferred",
            "type": "event"
        },
        {
            "anonymous": false,
            "inputs": [
                {
                    "indexed": false,
                    "internalType": "address",
                    "name": "tokenAddress",
                    "type": "address"
                },
                {
                    "indexed": false,
                    "internalType": "address",
                    "name": "royaltyReceiver",
                    "type": "address"
                },
                {
                    "indexed": false,
                    "internalType": "uint256",
                    "name": "royaltyAmount",
                    "type": "uint256"
                }
            ],
            "name": "RoyaltyPaid",
            "type": "event"
        },
        {
            "anonymous": false,
            "inputs": [
                {
                    "indexed": false,
                    "internalType": "address",
                    "name": "buyer",
                    "type": "address"
                },
                {
                    "indexed": false,
                    "internalType": "address",
                    "name": "seller",
                    "type": "address"
                },
                {
                    "indexed": false,
                    "internalType": "address",
                    "name": "tokenAddress",
                    "type": "address"
                },
                {
                    "indexed": false,
                    "internalType": "uint256",
                    "name": "tokenId",
                    "type": "uint256"
                },
                {
                    "indexed": false,
                    "internalType": "uint256",
                    "name": "amount",
                    "type": "uint256"
                },
                {
                    "indexed": false,
                    "internalType": "uint256",
                    "name": "quantity",
                    "type": "uint256"
                }
            ],
            "name": "Sale",
            "type": "event"
        },
        {
            "anonymous": false,
            "inputs": [
                {
                    "indexed": true,
                    "internalType": "address",
                    "name": "implementation",
                    "type": "address"
                }
            ],
            "name": "Upgraded",
            "type": "event"
        },
        {
            "inputs": [
                {
                    "components": [
                        {
                            "internalType": "address",
                            "name": "user",
                            "type": "address"
                        },
                        {
                            "internalType": "address",
                            "name": "tokenAddress",
                            "type": "address"
                        },
                        {
                            "internalType": "uint256",
                            "name": "tokenId",
                            "type": "uint256"
                        },
                        {
                            "internalType": "uint256",
                            "name": "quantity",
                            "type": "uint256"
                        },
                        {
                            "internalType": "uint256",
                            "name": "listingType",
                            "type": "uint256"
                        },
                        {
                            "internalType": "address",
                            "name": "paymentToken",
                            "type": "address"
                        },
                        {
                            "internalType": "uint256",
                            "name": "value",
                            "type": "uint256"
                        },
                        {
                            "internalType": "uint256",
                            "name": "deadline",
                            "type": "uint256"
                        },
                        {
                            "internalType": "uint256[]",
                            "name": "bundleTokens",
                            "type": "uint256[]"
                        },
                        {
                            "internalType": "uint256[]",
                            "name": "bundleTokensQuantity",
                            "type": "uint256[]"
                        },
                        {
                            "internalType": "uint256",
                            "name": "salt",
                            "type": "uint256"
                        }
                    ],
                    "internalType": "struct DecryptMarketplace.Order",
                    "name": "_order",
                    "type": "tuple"
                }
            ],
            "name": "buildHash",
            "outputs": [
                {
                    "internalType": "bytes32",
                    "name": "",
                    "type": "bytes32"
                }
            ],
            "stateMutability": "nonpayable",
            "type": "function"
        },
        {
            "inputs": [
                {
                    "components": [
                        {
                            "internalType": "address",
                            "name": "user",
                            "type": "address"
                        },
                        {
                            "internalType": "address",
                            "name": "tokenAddress",
                            "type": "address"
                        },
                        {
                            "internalType": "uint256",
                            "name": "tokenId",
                            "type": "uint256"
                        },
                        {
                            "internalType": "uint256",
                            "name": "quantity",
                            "type": "uint256"
                        },
                        {
                            "internalType": "uint256",
                            "name": "listingType",
                            "type": "uint256"
                        },
                        {
                            "internalType": "address",
                            "name": "paymentToken",
                            "type": "address"
                        },
                        {
                            "internalType": "uint256",
                            "name": "value",
                            "type": "uint256"
                        },
                        {
                            "internalType": "uint256",
                            "name": "deadline",
                            "type": "uint256"
                        },
                        {
                            "internalType": "uint256[]",
                            "name": "bundleTokens",
                            "type": "uint256[]"
                        },
                        {
                            "internalType": "uint256[]",
                            "name": "bundleTokensQuantity",
                            "type": "uint256[]"
                        },
                        {
                            "internalType": "uint256",
                            "name": "salt",
                            "type": "uint256"
                        }
                    ],
                    "internalType": "struct DecryptMarketplace.Order",
                    "name": "_usersOrder",
                    "type": "tuple"
                },
                {
                    "components": [
                        {
                            "internalType": "uint8",
                            "name": "v",
                            "type": "uint8"
                        },
                        {
                            "internalType": "bytes32",
                            "name": "r",
                            "type": "bytes32"
                        },
                        {
                            "internalType": "bytes32",
                            "name": "s",
                            "type": "bytes32"
                        }
                    ],
                    "internalType": "struct DecryptMarketplace.Sig",
                    "name": "_usersSig",
                    "type": "tuple"
                }
            ],
            "name": "cancelOrder",
            "outputs": [],
            "stateMutability": "nonpayable",
            "type": "function"
        },
        {
            "inputs": [
                {
                    "components": [
                        {
                            "internalType": "address",
                            "name": "user",
                            "type": "address"
                        },
                        {
                            "internalType": "address",
                            "name": "tokenAddress",
                            "type": "address"
                        },
                        {
                            "internalType": "uint256",
                            "name": "tokenId",
                            "type": "uint256"
                        },
                        {
                            "internalType": "uint256",
                            "name": "quantity",
                            "type": "uint256"
                        },
                        {
                            "internalType": "uint256",
                            "name": "listingType",
                            "type": "uint256"
                        },
                        {
                            "internalType": "address",
                            "name": "paymentToken",
                            "type": "address"
                        },
                        {
                            "internalType": "uint256",
                            "name": "value",
                            "type": "uint256"
                        },
                        {
                            "internalType": "uint256",
                            "name": "deadline",
                            "type": "uint256"
                        },
                        {
                            "internalType": "uint256[]",
                            "name": "bundleTokens",
                            "type": "uint256[]"
                        },
                        {
                            "internalType": "uint256[]",
                            "name": "bundleTokensQuantity",
                            "type": "uint256[]"
                        },
                        {
                            "internalType": "uint256",
                            "name": "salt",
                            "type": "uint256"
                        }
                    ],
                    "internalType": "struct DecryptMarketplace.Order",
                    "name": "_sellerOrder",
                    "type": "tuple"
                },
                {
                    "components": [
                        {
                            "internalType": "uint8",
                            "name": "v",
                            "type": "uint8"
                        },
                        {
                            "internalType": "bytes32",
                            "name": "r",
                            "type": "bytes32"
                        },
                        {
                            "internalType": "bytes32",
                            "name": "s",
                            "type": "bytes32"
                        }
                    ],
                    "internalType": "struct DecryptMarketplace.Sig",
                    "name": "_sellerSig",
                    "type": "tuple"
                },
                {
                    "components": [
                        {
                            "internalType": "address",
                            "name": "user",
                            "type": "address"
                        },
                        {
                            "internalType": "address",
                            "name": "tokenAddress",
                            "type": "address"
                        },
                        {
                            "internalType": "uint256",
                            "name": "tokenId",
                            "type": "uint256"
                        },
                        {
                            "internalType": "uint256",
                            "name": "quantity",
                            "type": "uint256"
                        },
                        {
                            "internalType": "uint256",
                            "name": "listingType",
                            "type": "uint256"
                        },
                        {
                            "internalType": "address",
                            "name": "paymentToken",
                            "type": "address"
                        },
                        {
                            "internalType": "uint256",
                            "name": "value",
                            "type": "uint256"
                        },
                        {
                            "internalType": "uint256",
                            "name": "deadline",
                            "type": "uint256"
                        },
                        {
                            "internalType": "uint256[]",
                            "name": "bundleTokens",
                            "type": "uint256[]"
                        },
                        {
                            "internalType": "uint256[]",
                            "name": "bundleTokensQuantity",
                            "type": "uint256[]"
                        },
                        {
                            "internalType": "uint256",
                            "name": "salt",
                            "type": "uint256"
                        }
                    ],
                    "internalType": "struct DecryptMarketplace.Order",
                    "name": "_buyerOrder",
                    "type": "tuple"
                },
                {
                    "components": [
                        {
                            "internalType": "uint8",
                            "name": "v",
                            "type": "uint8"
                        },
                        {
                            "internalType": "bytes32",
                            "name": "r",
                            "type": "bytes32"
                        },
                        {
                            "internalType": "bytes32",
                            "name": "s",
                            "type": "bytes32"
                        }
                    ],
                    "internalType": "struct DecryptMarketplace.Sig",
                    "name": "_buyerSig",
                    "type": "tuple"
                }
            ],
            "name": "completeOrder",
            "outputs": [],
            "stateMutability": "payable",
            "type": "function"
        },
        {
            "inputs": [
                {
                    "internalType": "uint256[]",
                    "name": "_indexArray",
                    "type": "uint256[]"
                },
                {
                    "internalType": "uint256[]",
                    "name": "_quantityArray",
                    "type": "uint256[]"
                }
            ],
            "name": "hashBundleTokens",
            "outputs": [
                {
                    "internalType": "bytes32",
                    "name": "",
                    "type": "bytes32"
                }
            ],
            "stateMutability": "view",
            "type": "function"
        },
        {
            "inputs": [],
            "name": "implementationAddress",
            "outputs": [
                {
                    "internalType": "address",
                    "name": "",
                    "type": "address"
                }
            ],
            "stateMutability": "view",
            "type": "function"
        },
        {
            "inputs": [
                {
                    "internalType": "string",
                    "name": "name",
                    "type": "string"
                },
                {
                    "internalType": "string",
                    "name": "version",
                    "type": "string"
                },
                {
                    "internalType": "uint256",
                    "name": "_marketplaceFee",
                    "type": "uint256"
                },
                {
                    "internalType": "uint256",
                    "name": "_royaltyLimit",
                    "type": "uint256"
                }
            ],
            "name": "initialize",
            "outputs": [],
            "stateMutability": "nonpayable",
            "type": "function"
        },
        {
            "inputs": [],
            "name": "marketplaceFee",
            "outputs": [
                {
                    "internalType": "uint256",
                    "name": "",
                    "type": "uint256"
                }
            ],
            "stateMutability": "view",
            "type": "function"
        },
        {
            "inputs": [],
            "name": "owner",
            "outputs": [
                {
                    "internalType": "address",
                    "name": "",
                    "type": "address"
                }
            ],
            "stateMutability": "view",
            "type": "function"
        },
        {
            "inputs": [
                {
                    "internalType": "address",
                    "name": "ownerAddress",
                    "type": "address"
                },
                {
                    "internalType": "address",
                    "name": "tokenAddress",
                    "type": "address"
                },
                {
                    "internalType": "uint256",
                    "name": "tokenId",
                    "type": "uint256"
                },
                {
                    "internalType": "uint256",
                    "name": "eventId",
                    "type": "uint256"
                },
                {
                    "internalType": "uint256",
                    "name": "quantity",
                    "type": "uint256"
                }
            ],
            "name": "prePurchase",
            "outputs": [],
            "stateMutability": "payable",
            "type": "function"
        },
        {
            "inputs": [
                {
                    "internalType": "bytes32",
                    "name": "hash",
                    "type": "bytes32"
                },
                {
                    "components": [
                        {
                            "internalType": "uint8",
                            "name": "v",
                            "type": "uint8"
                        },
                        {
                            "internalType": "bytes32",
                            "name": "r",
                            "type": "bytes32"
                        },
                        {
                            "internalType": "bytes32",
                            "name": "s",
                            "type": "bytes32"
                        }
                    ],
                    "internalType": "struct DecryptMarketplace.Sig",
                    "name": "_sig",
                    "type": "tuple"
                }
            ],
            "name": "recoverAddress",
            "outputs": [
                {
                    "internalType": "address",
                    "name": "",
                    "type": "address"
                }
            ],
            "stateMutability": "view",
            "type": "function"
        },
        {
            "inputs": [],
            "name": "renounceOwnership",
            "outputs": [],
            "stateMutability": "nonpayable",
            "type": "function"
        },
        {
            "inputs": [],
            "name": "royaltyLimit",
            "outputs": [
                {
                    "internalType": "uint256",
                    "name": "",
                    "type": "uint256"
                }
            ],
            "stateMutability": "view",
            "type": "function"
        },
        {
            "inputs": [
                {
                    "internalType": "uint256",
                    "name": "_marketplaceFee",
                    "type": "uint256"
                }
            ],
            "name": "setMarketplaceFee",
            "outputs": [],
            "stateMutability": "nonpayable",
            "type": "function"
        },
        {
            "inputs": [
                {
                    "internalType": "uint256",
                    "name": "_royaltyLimit",
                    "type": "uint256"
                }
            ],
            "name": "setRoyaltyLimit",
            "outputs": [],
            "stateMutability": "nonpayable",
            "type": "function"
        },
        {
            "inputs": [
                {
                    "internalType": "address",
                    "name": "newOwner",
                    "type": "address"
                }
            ],
            "name": "transferOwnership",
            "outputs": [],
            "stateMutability": "nonpayable",
            "type": "function"
        },
        {
            "inputs": [
                {
                    "internalType": "address",
                    "name": "newImplementation",
                    "type": "address"
                }
            ],
            "name": "upgradeTo",
            "outputs": [],
            "stateMutability": "nonpayable",
            "type": "function"
        },
        {
            "inputs": [
                {
                    "internalType": "address",
                    "name": "newImplementation",
                    "type": "address"
                },
                {
                    "internalType": "bytes",
                    "name": "data",
                    "type": "bytes"
                }
            ],
            "name": "upgradeToAndCall",
            "outputs": [],
            "stateMutability": "payable",
            "type": "function"
        },
        {
            "inputs": [
                {
                    "internalType": "uint256",
                    "name": "amount",
                    "type": "uint256"
                },
                {
                    "internalType": "address payable",
                    "name": "receiver",
                    "type": "address"
                },
                {
                    "internalType": "address",
                    "name": "tokenAddress",
                    "type": "address"
                }
            ],
            "name": "withdrawERC20",
            "outputs": [],
            "stateMutability": "nonpayable",
            "type": "function"
        },
        {
            "inputs": [
                {
                    "internalType": "uint256",
                    "name": "amount",
                    "type": "uint256"
                },
                {
                    "internalType": "address payable",
                    "name": "receiver",
                    "type": "address"
                }
            ],
            "name": "withdrawETH",
            "outputs": [],
            "stateMutability": "nonpayable",
            "type": "function"
        }
    ],
    "bytecode": "0x60a06040523060601b60805234801561001757600080fd5b5060805160601c6155e06200004c60003960008181610592015281816105d20152818161065b015261069b01526155e06000f3fe6080604052600436106101145760003560e01c80636fe0e395116100a05780639407ea98116100645780639407ea98146102ba578063b97a2319146102da578063d3435d5a146102ef578063f04bdf5c1461030f578063f2fde38b1461032f57610114565b80636fe0e39514610220578063715018a61461024057806373720f2b146102555780638cac60e6146102755780638da5cb5b1461028857610114565b80633659cfe6116100e75780633659cfe6146101a45780634f1ef286146101c457806350572f7e146101d75780635d29dab4146101ea5780636a1669641461020a57610114565b80631fe9f0301461011957806320a9b45b14610142578063335553231461016257806336118b5214610184575b600080fd5b34801561012557600080fd5b5061012f60fe5481565b6040519081526020015b60405180910390f35b34801561014e57600080fd5b5061012f61015d366004614da5565b61034f565b34801561016e57600080fd5b5061018261017d366004614f02565b6103ec565b005b34801561019057600080fd5b5061018261019f366004614ffb565b610505565b3480156101b057600080fd5b506101826101bf366004614b7a565b610587565b6101826101d2366004614c02565b610650565b6101826101e5366004614bb2565b61070a565b3480156101f657600080fd5b5061018261020536600461502a565b610f9e565b34801561021657600080fd5b5061012f60fd5481565b34801561022c57600080fd5b5061018261023b366004614e54565b61106d565b34801561024c57600080fd5b50610182611172565b34801561026157600080fd5b5061012f610270366004614ecf565b6111a8565b610182610283366004614f46565b6112c5565b34801561029457600080fd5b506033546001600160a01b03165b6040516001600160a01b039091168152602001610139565b3480156102c657600080fd5b506101826102d5366004614fcb565b611989565b3480156102e657600080fd5b506102a2611a2c565b3480156102fb57600080fd5b5061018261030a366004614fcb565b611a3b565b34801561031b57600080fd5b506102a261032a366004614e28565b611ad7565b34801561033b57600080fd5b5061018261034a366004614b7a565b611b03565b60008361035e575060006103e4565b600085856040516020016103739291906150c9565b604051602081830303815290604052805190602001209050600084846040516020016103a09291906150c9565b60408051601f198184030181528282528051602091820120908301859052908201819052915060600160405160208183030381529060405280519060200120925050505b949350505050565b336103fa6020840184614b7a565b6001600160a01b0316146104435760405162461bcd60e51b815260206004820152600b60248201526a2bb937b7339037b93232b960a91b60448201526064015b60405180910390fd5b600061044e836111a8565b9050610467816104616020860186614b7a565b84611b9b565b33600090815260ff602090815260408083208484528252909120805460ff191660011790557ff0c347de6e367e3b6b6cf5a3b1c941ec70b7182ddfc7f10ef1de524d1c61b217906104ba90850185614b7a565b6104ca6040860160208701614b7a565b604080516001600160a01b039384168152929091166020830152808601359082015260808086013560608301520160405180910390a1505050565b6033546001600160a01b0316331461052f5760405162461bcd60e51b815260040161043a906153ac565b6001600160a01b03811661054257600080fd5b8161054c57600080fd5b6040516001600160a01b0382169083156108fc029084906000818181858888f19350505050158015610582573d6000803e3d6000fd5b505050565b306001600160a01b037f00000000000000000000000000000000000000000000000000000000000000001614156105d05760405162461bcd60e51b815260040161043a906152c6565b7f00000000000000000000000000000000000000000000000000000000000000006001600160a01b0316610602611c65565b6001600160a01b0316146106285760405162461bcd60e51b815260040161043a90615312565b61063181611c93565b6040805160008082526020820190925261064d91839190611cbd565b50565b306001600160a01b037f00000000000000000000000000000000000000000000000000000000000000001614156106995760405162461bcd60e51b815260040161043a906152c6565b7f00000000000000000000000000000000000000000000000000000000000000006001600160a01b03166106cb611c65565b6001600160a01b0316146106f15760405162461bcd60e51b815260040161043a90615312565b6106fa82611c93565b61070682826001611cbd565b5050565b6040516301ffc9a760e01b81526001600160a01b038516906301ffc9a79061073d9063d5497c4d60e01b9060040161527e565b602060405180830381600087803b15801561075757600080fd5b505af115801561076b573d6000803e3d6000fd5b505050506040513d601f19601f8201168201806040525081019061078f9190614e0e565b8061081a57506040516301ffc9a760e01b81526001600160a01b038516906301ffc9a7906107c8906352210df160e11b9060040161527e565b602060405180830381600087803b1580156107e257600080fd5b505af11580156107f6573d6000803e3d6000fd5b505050506040513d601f19601f8201168201806040525081019061081a9190614e0e565b61085f5760405162461bcd60e51b8152602060048201526016602482015275141c994814d85b19481b9bdd081cdd5c1c1bdc9d195960521b604482015260640161043a565b6001600160a01b0385163314156108ae5760405162461bcd60e51b815260206004820152601360248201527221b0b73a10313abc903cb7bab9103a37b5b2b760691b604482015260640161043a565b60006108b985611e08565b905060006108c78683611f5a565b9050600081801561090157508280156108e657506108e6878988612084565b80610901575082158015610901575061090187898887612194565b60405163e985e9c560e01b81526001600160a01b038a811660048301523060248301529192509088169063e985e9c59060440160206040518083038186803b15801561094c57600080fd5b505afa158015610960573d6000803e3d6000fd5b505050506040513d601f19601f820116820180604052508101906109849190614e0e565b6109bf5760405162461bcd60e51b815260206004820152600c60248201526b139bdd08185c1c1c9bdd995960a21b604482015260640161043a565b60008315610c7c5784600114610a0a5760405162461bcd60e51b815260206004820152601060248201526f45524337323120697320756e6971756560801b604482015260640161043a565b8180610a9957506040516331a9108f60e11b8152600481018890526001600160a01b03808b1691908a1690636352211e9060240160206040518083038186803b158015610a5657600080fd5b505afa158015610a6a573d6000803e3d6000fd5b505050506040513d601f19601f82011682018060405250810190610a8e9190614b96565b6001600160a01b0316145b610ad45760405162461bcd60e51b815260206004820152600c60248201526b2737ba1030b71037bbb732b960a11b604482015260640161043a565b6040516307b2b94560e11b81523360048201526024810188905260448101879052600090819081906001600160a01b038c1690630f65728a9060640160606040518083038186803b158015610b2857600080fd5b505afa158015610b3c573d6000803e3d6000fd5b505050506040513d601f19601f82011682018060405250810190610b60919061506b565b92509250925080610ba15760405162461bcd60e51b815260206004820152600b60248201526a139bdd08185b1b1bddd95960aa1b604482015260640161043a565b829350610bb38b8b8e338c60016122ae565b60006040518060c001604052808e6001600160a01b03168152602001336001600160a01b031681526020018d6001600160a01b031681526020018c8152602001858152602001846001600160a01b03168152509050610c138160016124aa565b604051631564ed2d60e31b8152600481018b90523360248201526001600160a01b038d169063ab27696890604401600060405180830381600087803b158015610c5b57600080fd5b505af1158015610c6f573d6000803e3d6000fd5b5050505050505050610f52565b6001851015610cc35760405162461bcd60e51b815260206004820152601360248201527243616e74206275792030207175616e7469747960681b604482015260640161043a565b8180610d4e5750604051627eeac760e11b81526001600160a01b038a81166004830152602482018990528691908a169062fdd58e9060440160206040518083038186803b158015610d1357600080fd5b505afa158015610d27573d6000803e3d6000fd5b505050506040513d601f19601f82011682018060405250810190610d4b9190614fe3565b10155b610d8e5760405162461bcd60e51b81526020600482015260116024820152704e6f7420656e6f75676820746f6b656e7360781b604482015260640161043a565b60405163863aa1c560e01b8152336004820152602481018890526044810186905260648101879052600090819081906001600160a01b038c169063863aa1c59060840160606040518083038186803b158015610de957600080fd5b505afa158015610dfd573d6000803e3d6000fd5b505050506040513d601f19601f82011682018060405250810190610e21919061506b565b92509250925080610e625760405162461bcd60e51b815260206004820152600b60248201526a139bdd08185b1b1bddd95960aa1b604482015260640161043a565b829350610e748b8b8e338c60006122ae565b60006040518060c001604052808e6001600160a01b03168152602001336001600160a01b031681526020018d6001600160a01b031681526020018c8152602001858b610ec091906154c5565b8152602001846001600160a01b03168152509050610edf8160016124aa565b604051630a6e7bb160e31b8152336004820152602481018c9052604481018a9052606481018b90526001600160a01b038d1690635373dd8890608401600060405180830381600087803b158015610f3557600080fd5b505af1158015610f49573d6000803e3d6000fd5b50505050505050505b7fb98b19c2f39a8910882da6b63c2dceedb6e0c627a20418117ee5312e03e0ad22338a8a8a858a604051610f8b96959493929190615173565b60405180910390a1505050505050505050565b6033546001600160a01b03163314610fc85760405162461bcd60e51b815260040161043a906153ac565b6001600160a01b038216610fdb57600080fd5b82610fe557600080fd5b60405163a9059cbb60e01b81526001600160a01b0383811660048301526024820185905282169063a9059cbb90604401602060405180830381600087803b15801561102f57600080fd5b505af1158015611043573d6000803e3d6000fd5b505050506040513d601f19601f820116820180604052508101906110679190614e0e565b50505050565b600054610100900460ff166110885760005460ff161561108c565b303b155b6110a85760405162461bcd60e51b815260040161043a9061535e565b600054610100900460ff161580156110ca576000805461ffff19166101011790555b6110d2612f47565b6110da612f7e565b61114d87878080601f01602080910402602001604051908101604052809392919081815260200183838082843760009201919091525050604080516020601f8b018190048102820181019092528981529250899150889081908401838280828437600092019190915250612fb592505050565b60fd83905560fe8290558015611169576000805461ff00191690555b50505050505050565b6033546001600160a01b0316331461119c5760405162461bcd60e51b815260040161043a906153ac565b6111a66000613032565b565b60006112bd7f71a3a4226140abab21a6ef038232eb48fc3808c581332249528be21179f24db16111db6020850185614b7a565b6111eb6040860160208701614b7a565b60408601356060870135608088013561120a60c08a0160a08b01614b7a565b60c08a013560e08b01356112366112256101008e018e61542c565b8e80610120019061015d919061542c565b60408051602081019b909b526001600160a01b03998a16908b015296881660608a0152608089019590955260a088019390935260c087019190915290931660e0850152610100840192909252610120830191909152610140808301919091528401356101608201526101800160405160208183030381529060405280519060200120613084565b90505b919050565b60008460800135600114806112de575084608001356004145b905080156113df57336112f46020870187614b7a565b6001600160a01b0316148061131d5750336113126020850185614b7a565b6001600160a01b0316145b6113695760405162461bcd60e51b815260206004820152601960248201527f55736572206164647265737320646f65736e74206d6174636800000000000000604482015260640161043a565b6113766020840184614b7a565b6001600160a01b0316336001600160a01b031614156113da578460e0013542116113da5760405162461bcd60e51b8152602060048201526015602482015274105d58dd1a5bdb881a185cc81b9bdd08195b991959605a1b604482015260640161043a565b611443565b336113ed6020850185614b7a565b6001600160a01b0316146114435760405162461bcd60e51b815260206004820152601a60248201527f4275796572206164647265737320646f65736e74206d61746368000000000000604482015260640161043a565b80156114ab57600061145b60c0850160a08601614b7a565b6001600160a01b031614156114ab5760405162461bcd60e51b815260206004820152601660248201527527b7363c9022a9219918103337b91030bab1ba34b7b760511b604482015260640161043a565b60006114c56114c06040860160208701614b7a565b611e08565b9050600086608001356003141580156114e357508660800135600414155b90506000821580156114f25750815b905060006114ff896111a8565b905061150e6020880188614b7a565b6001600160a01b0316336001600160a01b0316141561153e5761153e8161153860208c018c614b7a565b8a611b9b565b841561156a57600061154f886111a8565b90506115688161156260208b018b614b7a565b89611b9b565b505b8180156115af575060ff600061158360208c018c614b7a565b6001600160a01b031681526020808201929092526040908101600090812084825290925290205460ff16155b80156115f1575061010060006115c860208c018c614b7a565b6001600160a01b0316815260208082019290925260409081016000908120848252909252902054155b15611635576060890135610100600061160d60208d018d614b7a565b6001600160a01b03168152602080820192909252604090810160009081208582529092529020555b61164289888686896130d2565b61164f8988868685613646565b82156116925761169261166860408b0160208c01614b7a565b60408b013561167a60208d018d614b7a565b61168760208c018c614b7a565b8b60600135896122ae565b81156116f557606087013561010060006116af60208d018d614b7a565b6001600160a01b03166001600160a01b03168152602001908152602001600020600083815260200190815260200160002060008282546116ef91906154e4565b90915550505b8261170557611705898886613a15565b6040805160c081019091526000908061172160208d018d614b7a565b6001600160a01b0316815260209081019061173e908b018b614b7a565b6001600160a01b031681526020018b602001602081019061175f9190614b7a565b6001600160a01b031681526020018b6040013581526020018960c0013581526020018b60a00160208101906117949190614b7a565b6001600160a01b0316905290506117ab81856124aa565b821561183c5761010060006117c360208d018d614b7a565b6001600160a01b031681526020808201929092526040908101600090812085825290925290205461183757600160ff600061180160208e018e614b7a565b6001600160a01b03168152602080820192909252604090810160009081208682529092529020805460ff19169115159190911790555b611885565b600160ff600061184f60208e018e614b7a565b6001600160a01b03168152602080820192909252604090810160009081208682529092529020805460ff19169115159190911790555b8315611904577fb98b19c2f39a8910882da6b63c2dceedb6e0c627a20418117ee5312e03e0ad226118b960208a018a614b7a565b6118c660208d018d614b7a565b6118d660408e0160208f01614b7a565b8b604001358c60c001358d606001356040516118f796959493929190615173565b60405180910390a161197d565b7f10ba6c13484dae8a68a77d9ccd88ae8d4a2527f9afc97eb9c24cbc284b3af5fe61193260208a018a614b7a565b61193f60208d018d614b7a565b61194f60408e0160208f01614b7a565b61195d6101008f018f61542c565b8d60c001356040516119749695949392919061510f565b60405180910390a15b50505050505050505050565b6033546001600160a01b031633146119b35760405162461bcd60e51b815260040161043a906153ac565b61251c8111156119f05760405162461bcd60e51b81526020600482015260086024820152674f7665722039352560c01b604482015260640161043a565b60fd8190556040518181527fa29c42da2d0ba4112644aa2f0c9df23b387e88c8448fbb9afc0710cd2ad4afce906020015b60405180910390a150565b6000611a36611c65565b905090565b6033546001600160a01b03163314611a655760405162461bcd60e51b815260040161043a906153ac565b61251c811115611aa25760405162461bcd60e51b81526020600482015260086024820152674f7665722039352560c01b604482015260640161043a565b60fe8190556040518181527f57e5b5038264ffc94762c5e554e4a3497b46983e124abce395f517a744bea66690602001611a21565b600080611afa84611aeb60208601866150a8565b85602001358660400135613ed5565b50949350505050565b6033546001600160a01b03163314611b2d5760405162461bcd60e51b815260040161043a906153ac565b6001600160a01b038116611b925760405162461bcd60e51b815260206004820152602660248201527f4f776e61626c653a206e6577206f776e657220697320746865207a65726f206160448201526564647265737360d01b606482015260840161043a565b61064d81613032565b6001600160a01b038216600090815260ff60208181526040808420878552909152909120541615611c065760405162461bcd60e51b815260206004820152601560248201527443616e63656c6c6564206f7220636f6d706c65746560581b604482015260640161043a565b6000611c128483611ad7565b9050806001600160a01b0316836001600160a01b0316146110675760405162461bcd60e51b815260206004820152600d60248201526c426164207369676e617475726560981b604482015260640161043a565b7f360894a13ba1a3210667c828492db98dca3e2076cc3735a920a3ca505d382bbc546001600160a01b031690565b6033546001600160a01b0316331461064d5760405162461bcd60e51b815260040161043a906153ac565b6000611cc7611c65565b9050611cd284613fc2565b600083511180611cdf5750815b15611cf057611cee8484614067565b505b7f4910fdfa16fed3260ed0e7147f7cc6da11a60208b5b9406d12a635614ffd9143805460ff16611e0157805460ff191660011781556040516001600160a01b0383166024820152611d6f90869060440160408051601f198184030181529190526020810180516001600160e01b0316631b2ce7f360e11b179052614067565b50805460ff19168155611d80611c65565b6001600160a01b0316826001600160a01b031614611df85760405162461bcd60e51b815260206004820152602f60248201527f45524331393637557067726164653a207570677261646520627265616b73206660448201526e75727468657220757067726164657360881b606482015260840161043a565b611e0185614149565b5050505050565b600080826001600160a01b03166301ffc9a76380ac58cd60e01b6040518263ffffffff1660e01b8152600401611e3e919061527e565b602060405180830381600087803b158015611e5857600080fd5b505af1158015611e6c573d6000803e3d6000fd5b505050506040513d601f19601f82011682018060405250810190611e909190614e0e565b90508080611f1e57506040516301ffc9a760e01b81526001600160a01b038416906301ffc9a790611ecc90636cdb3d1360e11b9060040161527e565b602060405180830381600087803b158015611ee657600080fd5b505af1158015611efa573d6000803e3d6000fd5b505050506040513d601f19601f82011682018060405250810190611f1e9190614e0e565b6112bd5760405162461bcd60e51b815260206004820152600d60248201526c2ab735b737bbb7102a37b5b2b760991b604482015260640161043a565b6000818015611fe957506040516301ffc9a760e01b81526001600160a01b038416906301ffc9a790611f979063f19b019960e01b9060040161527e565b602060405180830381600087803b158015611fb157600080fd5b505af1158015611fc5573d6000803e3d6000fd5b505050506040513d601f19601f82011682018060405250810190611fe99190614e0e565b8061207d57508115801561207d57506040516301ffc9a760e01b81526001600160a01b038416906301ffc9a79061202b9063155c914760e31b9060040161527e565b602060405180830381600087803b15801561204557600080fd5b505af1158015612059573d6000803e3d6000fd5b505050506040513d601f19601f8201168201806040525081019061207d9190614e0e565b9392505050565b604051634f558e7960e01b8152600481018290526000906001600160a01b03851690634f558e799060240160206040518083038186803b1580156120c757600080fd5b505afa1580156120db573d6000803e3d6000fd5b505050506040513d601f19601f820116820180604052508101906120ff9190614e0e565b1580156103e45750826001600160a01b0316846001600160a01b0316638da5cb5b6040518163ffffffff1660e01b815260040160206040518083038186803b15801561214a57600080fd5b505afa15801561215e573d6000803e3d6000fd5b505050506040513d601f19601f820116820180604052508101906121829190614b96565b6001600160a01b031614949350505050565b604051627eeac760e11b81526001600160a01b03848116600483015260248201849052600091839187169062fdd58e9060440160206040518083038186803b1580156121df57600080fd5b505afa1580156121f3573d6000803e3d6000fd5b505050506040513d601f19601f820116820180604052508101906122179190614fe3565b1080156122a55750836001600160a01b0316856001600160a01b0316638da5cb5b6040518163ffffffff1660e01b815260040160206040518083038186803b15801561226257600080fd5b505afa158015612276573d6000803e3d6000fd5b505050506040513d601f19601f8201168201806040525081019061229a9190614b96565b6001600160a01b0316145b95945050505050565b60006122ba8783611f5a565b905081156123af5760008180156122d757506122d7888789612084565b905080156123465760405163336b44bb60e01b81526001600160a01b0386811660048301526024820189905289169063336b44bb90604401600060405180830381600087803b15801561232957600080fd5b505af115801561233d573d6000803e3d6000fd5b505050506123a9565b604051632142170760e11b81526001600160a01b038916906342842e0e9061237690899089908c90600401615222565b600060405180830381600087803b15801561239057600080fd5b505af11580156123a4573d6000803e3d6000fd5b505050505b50611169565b60008180156123c557506123c588878987612194565b9050801561243b57604051632741416360e01b81526001600160a01b0386811660048301526024820189905260448201869052891690632741416390606401600060405180830381600087803b15801561241e57600080fd5b505af1158015612432573d6000803e3d6000fd5b505050506124a0565b604051637921219560e11b81526001600160a01b0389169063f242432a9061246d90899089908c908a90600401615246565b600060405180830381600087803b15801561248757600080fd5b505af115801561249b573d6000803e3d6000fd5b505050505b5050505050505050565b60a082015160808301516001600160a01b03909116158015919061266b57608084015160a085015160208601516040516370a0823160e01b81526001600160a01b0391821660048201529116906370a082319060240160206040518083038186803b15801561251857600080fd5b505afa15801561252c573d6000803e3d6000fd5b505050506040513d601f19601f820116820180604052508101906125509190614fe3565b10156125935760405162461bcd60e51b81526020600482015260126024820152714e6f7420656e6f7567682062616c616e636560701b604482015260640161043a565b608084015160a08501516020860151604051636eb1769f60e11b81526001600160a01b03918216600482015230602482015291169063dd62ed3e9060440160206040518083038186803b1580156125e957600080fd5b505afa1580156125fd573d6000803e3d6000fd5b505050506040513d601f19601f820116820180604052508101906126219190614fe3565b10156126665760405162461bcd60e51b81526020600482015260146024820152734e6f7420656e6f75676820616c6c6f77616e636560601b604482015260640161043a565b6126b4565b83608001513410156126b45760405162461bcd60e51b81526020600482015260126024820152714e6f7420656e6f756768207b76616c75657d60701b604482015260640161043a565b83604001516001600160a01b03166301ffc9a7631189900560e11b6040518263ffffffff1660e01b81526004016126eb919061527e565b602060405180830381600087803b15801561270557600080fd5b505af1158015612719573d6000803e3d6000fd5b505050506040513d601f19601f8201168201806040525081019061273d9190614e0e565b15612c0357600084604001519050806001600160a01b031663012e46b66040518163ffffffff1660e01b8152600401602060405180830381600087803b15801561278657600080fd5b505af115801561279a573d6000803e3d6000fd5b505050506040513d601f19601f820116820180604052508101906127be9190614e0e565b801561283f57506000816001600160a01b0316639fc28f816040518163ffffffff1660e01b815260040160006040518083038186803b15801561280057600080fd5b505afa158015612814573d6000803e3d6000fd5b505050506040513d6000823e601f3d908101601f1916820160405261283c9190810190614cd1565b51115b15612b3e578380156128d95750606085015160405163120dd7e160e21b81526000916001600160a01b038416916348375f84916128829160040190815260200190565b60006040518083038186803b15801561289a57600080fd5b505afa1580156128ae573d6000803e3d6000fd5b505050506040513d6000823e601f3d908101601f191682016040526128d69190810190614cd1565b51115b15612a1757606085015160405163120dd7e160e21b81526000916001600160a01b038416916348375f84916129149160040190815260200190565b60006040518083038186803b15801561292c57600080fd5b505afa158015612940573d6000803e3d6000fd5b505050506040513d6000823e601f3d908101601f191682016040526129689190810190614cd1565b905060008087604001516001600160a01b0316632a55205a89606001518a608001516040518363ffffffff1660e01b81526004016129b0929190918252602082015260400190565b604080518083038186803b1580156129c757600080fd5b505afa1580156129db573d6000803e3d6000fd5b505050506040513d601f19601f820116820180604052508101906129ff9190614ca4565b91509150612a0f88838386614189565b505050612b39565b6000816001600160a01b0316639fc28f816040518163ffffffff1660e01b815260040160006040518083038186803b158015612a5257600080fd5b505afa158015612a66573d6000803e3d6000fd5b505050506040513d6000823e601f3d908101601f19168201604052612a8e9190810190614cd1565b905060008087604001516001600160a01b0316632a55205a89606001518a608001516040518363ffffffff1660e01b8152600401612ad6929190918252602082015260400190565b604080518083038186803b158015612aed57600080fd5b505afa158015612b01573d6000803e3d6000fd5b505050506040513d601f19601f82011682018060405250810190612b259190614ca4565b91509150612b3588838386614189565b5050505b612bfd565b60008086604001516001600160a01b0316632a55205a886060015189608001516040518363ffffffff1660e01b8152600401612b84929190918252602082015260400190565b604080518083038186803b158015612b9b57600080fd5b505afa158015612baf573d6000803e3d6000fd5b505050506040513d601f19601f82011682018060405250810190612bd39190614ca4565b91509150612bfa876020015188600001518960a001518a6080015186868d6040015161462c565b50505b50612ee4565b83604001516001600160a01b03166301ffc9a763152a902d60e11b6040518263ffffffff1660e01b8152600401612c3a919061527e565b602060405180830381600087803b158015612c5457600080fd5b505af1158015612c68573d6000803e3d6000fd5b505050506040513d601f19601f82011682018060405250810190612c8c9190614e0e565b15612d545760008085604001516001600160a01b0316632a55205a876060015188608001516040518363ffffffff1660e01b8152600401612cd7929190918252602082015260400190565b604080518083038186803b158015612cee57600080fd5b505afa158015612d02573d6000803e3d6000fd5b505050506040513d601f19601f82011682018060405250810190612d269190614ca4565b91509150612d4d866020015187600001518860a00151896080015186868c6040015161462c565b5050612ee4565b600061271060fd5483612d6791906154c5565b612d7191906154a5565b90506000612d7f82846154e4565b90508315612ea65760a086015160208701516040516323b872dd60e01b81526001600160a01b03909216916323b872dd91612dc09130908790600401615222565b602060405180830381600087803b158015612dda57600080fd5b505af1158015612dee573d6000803e3d6000fd5b505050506040513d601f19601f82011682018060405250810190612e129190614e0e565b5060a0860151602087015187516040516323b872dd60e01b81526001600160a01b03909316926323b872dd92612e4e9290918690600401615222565b602060405180830381600087803b158015612e6857600080fd5b505af1158015612e7c573d6000803e3d6000fd5b505050506040513d601f19601f82011682018060405250810190612ea09190614e0e565b50612ee1565b85516040516001600160a01b039091169082156108fc029083906000818181858888f19350505050158015612edf573d6000803e3d6000fd5b505b50505b60a08401516001600160a01b0316611067576000612f0282346154e4565b60208601516040519192506001600160a01b03169082156108fc029083906000818181858888f19350505050158015612f3f573d6000803e3d6000fd5b505050505050565b600054610100900460ff16612f6e5760405162461bcd60e51b815260040161043a906153e1565b612f7661491c565b6111a6614943565b600054610100900460ff16612fa55760405162461bcd60e51b815260040161043a906153e1565b612fad61491c565b6111a661491c565b600054610100900460ff16612fd05760005460ff1615612fd4565b303b155b612ff05760405162461bcd60e51b815260040161043a9061535e565b600054610100900460ff16158015613012576000805461ffff19166101011790555b61301c8383614973565b8015610582576000805461ff0019169055505050565b603380546001600160a01b038381166001600160a01b0319831681179093556040519116919082907f8be0079c531659141344cd1fd0a4f28419497f9722a3daafe3b4186f6b6457e090600090a35050565b60006112bd613091614a03565b8360405161190160f01b6020820152602281018390526042810182905260009060620160405160208183030381529060405280519060200120905092915050565b60006130ed6130e76040880160208901614b7a565b85611f5a565b905060808601351580613104575085608001356001145b80613113575085608001356003145b80613122575085608001356004145b6131655760405162461bcd60e51b8152602060048201526014602482015273556e6b6e6f776e206c697374696e67207479706560601b604482015260640161043a565b82156134c15761317961010087018761542c565b1590506131bc5760405162461bcd60e51b815260206004820152601160248201527057726f6e67206c697374696e675479706560781b604482015260640161043a565b831561334157846060013560011480156131da575085606001356001145b6132175760405162461bcd60e51b815260206004820152600e60248201526d4e6f6e2d31207175616e7469747960901b604482015260640161043a565b80801561324957506132496132326040880160208901614b7a565b61323f6020890189614b7a565b8860400135612084565b80613301575061325c6020870187614b7a565b6001600160a01b03166132756040880160208901614b7a565b6001600160a01b0316636352211e88604001356040518263ffffffff1660e01b81526004016132a691815260200190565b60206040518083038186803b1580156132be57600080fd5b505afa1580156132d2573d6000803e3d6000fd5b505050506040513d601f19601f820116820180604052508101906132f69190614b96565b6001600160a01b0316145b61333c5760405162461bcd60e51b815260206004820152600c60248201526b2737ba1030b71037bbb732b960a11b604482015260640161043a565b6134c1565b60008560600135118015613359575060008660600135115b6133925760405162461bcd60e51b815260206004820152600a60248201526930207175616e7469747960b01b604482015260640161043a565b8080156133c957506133c96133ad6040880160208901614b7a565b6133ba6020890189614b7a565b88604001358860600135612194565b80613481575060608501356133e46040880160208901614b7a565b6001600160a01b031662fdd58e6133fe60208a018a614b7a565b604080516001600160e01b031960e085901b1681526001600160a01b0390921660048301528a0135602482015260440160206040518083038186803b15801561344657600080fd5b505afa15801561345a573d6000803e3d6000fd5b505050506040513d601f19601f8201168201806040525081019061347e9190614fe3565b10155b6134c15760405162461bcd60e51b81526020600482015260116024820152704e6f7420656e6f75676820746f6b656e7360781b604482015260640161043a565b6134d16040870160208801614b7a565b6001600160a01b031663e985e9c56134ec6020890189614b7a565b6040516001600160e01b031960e084901b1681526001600160a01b03909116600482015230602482015260440160206040518083038186803b15801561353157600080fd5b505afa158015613545573d6000803e3d6000fd5b505050506040513d601f19601f820116820180604052508101906135699190614e0e565b6135a45760405162461bcd60e51b815260206004820152600c60248201526b139bdd08185c1c1c9bdd995960a21b604482015260640161043a565b8161360257428660e00135101580156135c15750428560e0013510155b6135fd5760405162461bcd60e51b815260206004820152600d60248201526c27bb32b9323ab29037b93232b960991b604482015260640161043a565b612f3f565b428560e001351015612f3f5760405162461bcd60e51b815260206004820152600d60248201526c27bb32b9323ab29037b33332b960991b604482015260640161043a565b6136536020860186614b7a565b6001600160a01b03166136696020860186614b7a565b6001600160a01b031614156136b25760405162461bcd60e51b815260206004820152600f60248201526e213abcb2b9101e9e9029b2b63632b960891b604482015260640161043a565b6136c26040860160208701614b7a565b6001600160a01b03166136db6040860160208701614b7a565b6001600160a01b0316146137245760405162461bcd60e51b815260206004820152601060248201526f446966666572656e7420746f6b656e7360801b604482015260640161043a565b836040013585604001351480613738575081155b61377a5760405162461bcd60e51b81526020600482015260136024820152720a8ded6cadc9288e640c8dedce840dac2e8c6d606b1b604482015260640161043a565b821580156137855750815b1561381657606084013561010060006137a16020890189614b7a565b6001600160a01b03166001600160a01b0316815260200190815260200160002060008381526020019081526020016000205410156138165760405162461bcd60e51b815260206004820152601260248201527143616e74206275792074686174206d616e7960701b604482015260640161043a565b836080013585608001351461386d5760405162461bcd60e51b815260206004820152601960248201527f4c697374696e67207479706520646f65736e74206d6174636800000000000000604482015260640161043a565b61387d60c0850160a08601614b7a565b6001600160a01b031661389660c0870160a08801614b7a565b6001600160a01b0316146138ec5760405162461bcd60e51b815260206004820152601860248201527f5061796d656e7420746f6b656e20646f6e74206d617463680000000000000000604482015260640161043a565b81801561393457508360c001358560c00135111580156139095750825b8061393457508360c0013584606001358660c0013561392891906154c5565b11158015613934575082155b8061395057508115801561395057508360c001358560c0013511155b6139915760405162461bcd60e51b815260206004820152601260248201527115985b1d59481a5cc81d1bdbc81cdb585b1b60721b604482015260640161043a565b6139b06139a261010086018661542c565b61015d61012088018861542c565b6139cf6139c161010088018861542c565b61015d6101208a018a61542c565b14611e015760405162461bcd60e51b81526020600482015260166024820152750a8ded6cadc40d8d2e6e8e640c8dedce840dac2e8c6d60531b604482015260640161043a565b6000613a276040840160208501614b7a565b90506000613a44613a3e6040870160208801614b7a565b84611f5a565b905060005b613a5761010087018761542c565b9050811015612f3f57613a6e61010086018661542c565b82818110613a8c57634e487b7160e01b600052603260045260246000fd5b9050602002013586806101000190613aa4919061542c565b83818110613ac257634e487b7160e01b600052603260045260246000fd5b9050602002013514613b065760405162461bcd60e51b815260206004820152600d60248201526c15dc9bdb99c81d1bdad95b9259609a1b604482015260640161043a565b613b1461012086018661542c565b82818110613b3257634e487b7160e01b600052603260045260246000fd5b9050602002013586806101200190613b4a919061542c565b83818110613b6857634e487b7160e01b600052603260045260246000fd5b9050602002013514613bad5760405162461bcd60e51b815260206004820152600e60248201526d57726f6e67207175616e7469747960901b604482015260640161043a565b6000613bbd61010088018861542c565b83818110613bdb57634e487b7160e01b600052603260045260246000fd5b905060200201359050600087806101200190613bf7919061542c565b84818110613c1557634e487b7160e01b600052603260045260246000fd5b9050602002013590508515613daa5780600114613c675760405162461bcd60e51b815260206004820152601060248201526f45524337323120697320756e6971756560801b604482015260640161043a565b838015613c955750613c95613c8260408a0160208b01614b7a565b613c8f60208b018b614b7a565b84612084565b15613d2a57613caa6040890160208a01614b7a565b6001600160a01b031663336b44bb613cc560208a018a614b7a565b6040516001600160e01b031960e084901b1681526001600160a01b03909116600482015260248101859052604401600060405180830381600087803b158015613d0d57600080fd5b505af1158015613d21573d6000803e3d6000fd5b50505050613da5565b6001600160a01b0385166342842e0e613d4660208b018b614b7a565b613d5360208b018b614b7a565b856040518463ffffffff1660e01b8152600401613d7293929190615222565b600060405180830381600087803b158015613d8c57600080fd5b505af1158015613da0573d6000803e3d6000fd5b505050505b613ec0565b838015613dd95750613dd9613dc560408a0160208b01614b7a565b613dd260208b018b614b7a565b8484612194565b15613e4357613dee6040890160208a01614b7a565b6001600160a01b03166327414163613e0960208a018a614b7a565b6040516001600160e01b031960e084901b1681526001600160a01b0390911660048201526024810185905260448101849052606401613d72565b6001600160a01b03851663f242432a613e5f60208b018b614b7a565b613e6c60208b018b614b7a565b85856040518563ffffffff1660e01b8152600401613e8d9493929190615246565b600060405180830381600087803b158015613ea757600080fd5b505af1158015613ebb573d6000803e3d6000fd5b505050505b50508080613ecd90615527565b915050613a49565b6000807f7fffffffffffffffffffffffffffffff5d576e7357a4501ddfe92f46681b20a0831115613f0c5750600090506003613fb9565b8460ff16601b14158015613f2457508460ff16601c14155b15613f355750600090506004613fb9565b6040805160008082526020820180845289905260ff881692820192909252606081018690526080810185905260019060a0016020604051602081039080840390855afa158015613f89573d6000803e3d6000fd5b5050604051601f1901519150506001600160a01b038116613fb257600060019250925050613fb9565b9150600090505b94509492505050565b803b6140265760405162461bcd60e51b815260206004820152602d60248201527f455243313936373a206e657720696d706c656d656e746174696f6e206973206e60448201526c1bdd08184818dbdb9d1c9858dd609a1b606482015260840161043a565b7f360894a13ba1a3210667c828492db98dca3e2076cc3735a920a3ca505d382bbc80546001600160a01b0319166001600160a01b0392909216919091179055565b6060823b6140c65760405162461bcd60e51b815260206004820152602660248201527f416464726573733a2064656c65676174652063616c6c20746f206e6f6e2d636f6044820152651b9d1c9858dd60d21b606482015260840161043a565b600080846001600160a01b0316846040516140e191906150f3565b600060405180830381855af49150503d806000811461411c576040519150601f19603f3d011682016040523d82523d6000602084013e614121565b606091505b50915091506122a5828260405180606001604052806027815260200161558460279139614a7e565b61415281613fc2565b6040516001600160a01b038216907fbc7cd75a20ee27fd9adebab32041f755214dbc6bffa90cc0225b39da2e5c2d3b90600090a250565b60808401518015611e015760a085015160fd546001600160a01b03909116151590600090612710906141bb90856154c5565b6141c591906154a5565b90506000859050600061271060fe54866141df91906154c5565b6141e991906154a5565b9050808211156141f7578091505b60008261420485886154e4565b61420e91906154e4565b905084156143435783156142a95760a08a015160208b01516040516323b872dd60e01b81526001600160a01b03909216916323b872dd916142559130908990600401615222565b602060405180830381600087803b15801561426f57600080fd5b505af1158015614283573d6000803e3d6000fd5b505050506040513d601f19601f820116820180604052508101906142a79190614e0e565b505b801561433e5760a08a015160208b01518b516040516323b872dd60e01b81526001600160a01b03909316926323b872dd926142ea9290918690600401615222565b602060405180830381600087803b15801561430457600080fd5b505af1158015614318573d6000803e3d6000fd5b505050506040513d601f19601f8201168201806040525081019061433c9190614e0e565b505b614384565b80156143845789516040516001600160a01b039091169082156108fc029083906000818181858888f19350505050158015614382573d6000803e3d6000fd5b505b82156145ed578260005b88518110156145155760008982815181106143b957634e487b7160e01b600052603260045260246000fd5b602002602001015160000151905060006127108b84815181106143ec57634e487b7160e01b600052603260045260246000fd5b6020026020010151602001518861440391906154c5565b61440d91906154a5565b905060008111801561441f5750808410155b156145005788156144bb5760a08e015160208f01516040516323b872dd60e01b81526001600160a01b03909216916323b872dd916144639186908690600401615222565b602060405180830381600087803b15801561447d57600080fd5b505af1158015614491573d6000803e3d6000fd5b505050506040513d601f19601f820116820180604052508101906144b59190614e0e565b506144f3565b6040516001600160a01b0383169082156108fc029083906000818181858888f193505050501580156144f1573d6000803e3d6000fd5b505b6144fd81856154e4565b93505b5050808061450d90615527565b91505061438e565b5080156145eb5785156145b35760a08b015160208c01516040516323b872dd60e01b81526001600160a01b03909216916323b872dd9161455b918e908690600401615222565b602060405180830381600087803b15801561457557600080fd5b505af1158015614589573d6000803e3d6000fd5b505050506040513d601f19601f820116820180604052508101906145ad9190614e0e565b506145eb565b6040516001600160a01b038b169082156108fc029083906000818181858888f193505050501580156145e9573d6000803e3d6000fd5b505b505b821561197d577f9b613e301dc40dd14477f2522be85511f4ec9e592e1bee1320a05e12dbf752298a604001518a898660405161197494939291906151ac565b83156111695760fd546001600160a01b0386161515906000906127109061465390886154c5565b61465d91906154a5565b90506000849050600061271060fe548961467791906154c5565b61468191906154a5565b90508082111561468f578091505b60008261469c858b6154e4565b6146a691906154e4565b90508415614851578315614738576040516323b872dd60e01b81526001600160a01b038b16906323b872dd906146e4908f9030908990600401615222565b602060405180830381600087803b1580156146fe57600080fd5b505af1158015614712573d6000803e3d6000fd5b505050506040513d601f19601f820116820180604052508101906147369190614e0e565b505b82156147c2576040516323b872dd60e01b81526001600160a01b038b16906323b872dd9061476e908f908c908890600401615222565b602060405180830381600087803b15801561478857600080fd5b505af115801561479c573d6000803e3d6000fd5b505050506040513d601f19601f820116820180604052508101906147c09190614e0e565b505b801561484c576040516323b872dd60e01b81526001600160a01b038b16906323b872dd906147f8908f908f908690600401615222565b602060405180830381600087803b15801561481257600080fd5b505af1158015614826573d6000803e3d6000fd5b505050506040513d601f19601f8201168201806040525081019061484a9190614e0e565b505b6148cd565b821561488f576040516001600160a01b0389169084156108fc029085906000818181858888f1935050505015801561488d573d6000803e3d6000fd5b505b80156148cd576040516001600160a01b038c169082156108fc029083906000818181858888f193505050501580156148cb573d6000803e3d6000fd5b505b821561249b577fbdf0502df1b76d58521b2a929580ca100c2121e0ae38717b260d9cfa44c23b3286898560405161490693929190615222565b60405180910390a1505050505050505050505050565b600054610100900460ff166111a65760405162461bcd60e51b815260040161043a906153e1565b600054610100900460ff1661496a5760405162461bcd60e51b815260040161043a906153e1565b6111a633613032565b600054610100900460ff1661498e5760005460ff1615614992565b303b155b6149ae5760405162461bcd60e51b815260040161043a9061535e565b600054610100900460ff161580156149d0576000805461ffff19166101011790555b825160208085019190912083519184019190912060c99190915560ca558015610582576000805461ff0019169055505050565b6000611a367f8b73c3c69bb8fe3d512ecc4cf759cc79239f7b179b0ffacaa9a75d522b39400f614a3260c95490565b60ca546040805160208101859052908101839052606081018290524660808201523060a082015260009060c0016040516020818303038152906040528051906020012090509392505050565b60608315614a8d57508161207d565b825115614a9d5782518084602001fd5b8160405162461bcd60e51b815260040161043a9190615293565b60008083601f840112614ac8578182fd5b50813567ffffffffffffffff811115614adf578182fd5b6020830191508360208260051b8501011115614afa57600080fd5b9250929050565b805180151581146112c057600080fd5b60008083601f840112614b22578182fd5b50813567ffffffffffffffff811115614b39578182fd5b602083019150836020828501011115614afa57600080fd5b60006101608284031215614b63578081fd5b50919050565b600060608284031215614b63578081fd5b600060208284031215614b8b578081fd5b813561207d8161556e565b600060208284031215614ba7578081fd5b815161207d8161556e565b600080600080600060a08688031215614bc9578081fd5b8535614bd48161556e565b94506020860135614be48161556e565b94979496505050506040830135926060810135926080909101359150565b60008060408385031215614c14578182fd5b8235614c1f8161556e565b915060208381013567ffffffffffffffff80821115614c3c578384fd5b818601915086601f830112614c4f578384fd5b813581811115614c6157614c61615558565b614c73601f8201601f19168501615474565b91508082528784828501011115614c88578485fd5b8084840185840137810190920192909252919491935090915050565b60008060408385031215614cb6578182fd5b8251614cc18161556e565b6020939093015192949293505050565b60006020808385031215614ce3578182fd5b825167ffffffffffffffff80821115614cfa578384fd5b818501915085601f830112614d0d578384fd5b815181811115614d1f57614d1f615558565b614d2d848260051b01615474565b8181528481019250838501600683901b85018601891015614d4c578687fd5b8694505b82851015614d9957604080828b031215614d68578788fd5b614d7181615474565b8251614d7c8161556e565b815282880151888201528552600195909501949386019301614d50565b50979650505050505050565b60008060008060408587031215614dba578384fd5b843567ffffffffffffffff80821115614dd1578586fd5b614ddd88838901614ab7565b90965094506020870135915080821115614df5578384fd5b50614e0287828801614ab7565b95989497509550505050565b600060208284031215614e1f578081fd5b61207d82614b01565b60008060808385031215614e3a578182fd5b82359150614e4b8460208501614b69565b90509250929050565b60008060008060008060808789031215614e6c578384fd5b863567ffffffffffffffff80821115614e83578586fd5b614e8f8a838b01614b11565b90985096506020890135915080821115614ea7578586fd5b50614eb489828a01614b11565b979a9699509760408101359660609091013595509350505050565b600060208284031215614ee0578081fd5b813567ffffffffffffffff811115614ef6578182fd5b6103e484828501614b51565b60008060808385031215614f14578182fd5b823567ffffffffffffffff811115614f2a578283fd5b614f3685828601614b51565b925050614e4b8460208501614b69565b6000806000806101008587031215614f5c578182fd5b843567ffffffffffffffff80821115614f73578384fd5b614f7f88838901614b51565b9550614f8e8860208901614b69565b94506080870135915080821115614fa3578384fd5b50614fb087828801614b51565b925050614fc08660a08701614b69565b905092959194509250565b600060208284031215614fdc578081fd5b5035919050565b600060208284031215614ff4578081fd5b5051919050565b6000806040838503121561500d578182fd5b82359150602083013561501f8161556e565b809150509250929050565b60008060006060848603121561503e578081fd5b8335925060208401356150508161556e565b915060408401356150608161556e565b809150509250925092565b60008060006060848603121561507f578081fd5b8351925060208401516150918161556e565b915061509f60408501614b01565b90509250925092565b6000602082840312156150b9578081fd5b813560ff8116811461207d578182fd5b60006001600160fb1b038311156150de578081fd5b8260051b808584379190910190815292915050565b600082516151058184602087016154fb565b9190910192915050565b6001600160a01b03878116825286811660208301528516604082015260a060608201819052810183905260006001600160fb1b0384111561514e578081fd5b8360051b808660c0850137820160c00190815260809091019190915295945050505050565b6001600160a01b03968716815294861660208601529290941660408401526060830152608082019290925260a081019190915260c00190565b60006080820160018060a01b038088168452602081881681860152604060808187015283885180865260a088019150838a019550865b818110156152095786518051871684528501518584015295840195918301916001016151e2565b5050809550505050505082606083015295945050505050565b6001600160a01b039384168152919092166020820152604081019190915260600190565b6001600160a01b0394851681529290931660208301526040820152606081019190915260a06080820181905260009082015260c00190565b6001600160e01b031991909116815260200190565b60006020825282518060208401526152b28160408501602087016154fb565b601f01601f19169190910160400192915050565b6020808252602c908201527f46756e6374696f6e206d7573742062652063616c6c6564207468726f7567682060408201526b19195b1959d85d1958d85b1b60a21b606082015260800190565b6020808252602c908201527f46756e6374696f6e206d7573742062652063616c6c6564207468726f7567682060408201526b6163746976652070726f787960a01b606082015260800190565b6020808252602e908201527f496e697469616c697a61626c653a20636f6e747261637420697320616c72656160408201526d191e481a5b9a5d1a585b1a5e995960921b606082015260800190565b6020808252818101527f4f776e61626c653a2063616c6c6572206973206e6f7420746865206f776e6572604082015260600190565b6020808252602b908201527f496e697469616c697a61626c653a20636f6e7472616374206973206e6f74206960408201526a6e697469616c697a696e6760a81b606082015260800190565b6000808335601e19843603018112615442578283fd5b83018035915067ffffffffffffffff82111561545c578283fd5b6020019150600581901b3603821315614afa57600080fd5b604051601f8201601f1916810167ffffffffffffffff8111828210171561549d5761549d615558565b604052919050565b6000826154c057634e487b7160e01b81526012600452602481fd5b500490565b60008160001904831182151516156154df576154df615542565b500290565b6000828210156154f6576154f6615542565b500390565b60005b838110156155165781810151838201526020016154fe565b838111156110675750506000910152565b600060001982141561553b5761553b615542565b5060010190565b634e487b7160e01b600052601160045260246000fd5b634e487b7160e01b600052604160045260246000fd5b6001600160a01b038116811461064d57600080fdfe416464726573733a206c6f772d6c6576656c2064656c65676174652063616c6c206661696c6564a2646970667358221220b41c1624593ac2c6bb3574ed607c5b8e14b5244998a05631f102d9a5b950164f64736f6c63430008030033",
    "linkReferences": {},
    "deployedLinkReferences": {}
}