{
    "_format": "hh-sol-artifact-1",
    "contractName": "SimpleERC721",
    "sourceName": "contracts/NFT/SimpleERC721.sol",
    "abi": [
        {
            "inputs": [
                {
                    "internalType": "address",
                    "name": "owner_",
                    "type": "address"
                },
                {
                    "internalType": "address",
                    "name": "decryptMarketplaceAddress_",
                    "type": "address"
                },
                {
                    "internalType": "string",
                    "name": "name_",
                    "type": "string"
                },
                {
                    "internalType": "string",
                    "name": "symbol_",
                    "type": "string"
                },
                {
                    "internalType": "string",
                    "name": "uri_",
                    "type": "string"
                },
                {
                    "internalType": "uint256",
                    "name": "royalty_",
                    "type": "uint256"
                }
            ],
            "stateMutability": "nonpayable",
            "type": "constructor"
        },
        {
            "anonymous": false,
            "inputs": [
                {
                    "indexed": true,
                    "internalType": "address",
                    "name": "owner",
                    "type": "address"
                },
                {
                    "indexed": true,
                    "internalType": "address",
                    "name": "approved",
                    "type": "address"
                },
                {
                    "indexed": true,
                    "internalType": "uint256",
                    "name": "tokenId",
                    "type": "uint256"
                }
            ],
            "name": "Approval",
            "type": "event"
        },
        {
            "anonymous": false,
            "inputs": [
                {
                    "indexed": true,
                    "internalType": "address",
                    "name": "owner",
                    "type": "address"
                },
                {
                    "indexed": true,
                    "internalType": "address",
                    "name": "operator",
                    "type": "address"
                },
                {
                    "indexed": false,
                    "internalType": "bool",
                    "name": "approved",
                    "type": "bool"
                }
            ],
            "name": "ApprovalForAll",
            "type": "event"
        },
        {
            "anonymous": false,
            "inputs": [
                {
                    "indexed": true,
                    "internalType": "address",
                    "name": "previousOwner",
                    "type": "address"
                },
                {
                    "indexed": true,
                    "internalType": "address",
                    "name": "newOwner",
                    "type": "address"
                }
            ],
            "name": "OwnershipTransferred",
            "type": "event"
        },
        {
            "anonymous": false,
            "inputs": [
                {
                    "indexed": true,
                    "internalType": "address",
                    "name": "from",
                    "type": "address"
                },
                {
                    "indexed": true,
                    "internalType": "address",
                    "name": "to",
                    "type": "address"
                },
                {
                    "indexed": true,
                    "internalType": "uint256",
                    "name": "tokenId",
                    "type": "uint256"
                }
            ],
            "name": "Transfer",
            "type": "event"
        },
        {
            "anonymous": false,
            "inputs": [
                {
                    "indexed": false,
                    "internalType": "string",
                    "name": "_uri",
                    "type": "string"
                }
            ],
            "name": "UpdatedURI",
            "type": "event"
        },
        {
            "inputs": [
                {
                    "internalType": "address",
                    "name": "to",
                    "type": "address"
                },
                {
                    "internalType": "uint256",
                    "name": "tokenId",
                    "type": "uint256"
                }
            ],
            "name": "approve",
            "outputs": [],
            "stateMutability": "nonpayable",
            "type": "function"
        },
        {
            "inputs": [
                {
                    "internalType": "address",
                    "name": "owner",
                    "type": "address"
                }
            ],
            "name": "balanceOf",
            "outputs": [
                {
                    "internalType": "uint256",
                    "name": "",
                    "type": "uint256"
                }
            ],
            "stateMutability": "view",
            "type": "function"
        },
        {
            "inputs": [],
            "name": "baseURI",
            "outputs": [
                {
                    "internalType": "string",
                    "name": "",
                    "type": "string"
                }
            ],
            "stateMutability": "view",
            "type": "function"
        },
        {
            "inputs": [],
            "name": "decryptMarketplaceAddress",
            "outputs": [
                {
                    "internalType": "address",
                    "name": "",
                    "type": "address"
                }
            ],
            "stateMutability": "view",
            "type": "function"
        },
        {
            "inputs": [],
            "name": "disableRoyalty",
            "outputs": [],
            "stateMutability": "nonpayable",
            "type": "function"
        },
        {
            "inputs": [],
            "name": "disableRoyaltyDistribution",
            "outputs": [],
            "stateMutability": "nonpayable",
            "type": "function"
        },
        {
            "inputs": [],
            "name": "enableRoyalty",
            "outputs": [],
            "stateMutability": "nonpayable",
            "type": "function"
        },
        {
            "inputs": [],
            "name": "enableRoyaltyDistribution",
            "outputs": [],
            "stateMutability": "nonpayable",
            "type": "function"
        },
        {
            "inputs": [
                {
                    "internalType": "uint256",
                    "name": "tokenId",
                    "type": "uint256"
                }
            ],
            "name": "exists",
            "outputs": [
                {
                    "internalType": "bool",
                    "name": "",
                    "type": "bool"
                }
            ],
            "stateMutability": "view",
            "type": "function"
        },
        {
            "inputs": [
                {
                    "internalType": "uint256",
                    "name": "tokenId",
                    "type": "uint256"
                }
            ],
            "name": "getApproved",
            "outputs": [
                {
                    "internalType": "address",
                    "name": "",
                    "type": "address"
                }
            ],
            "stateMutability": "view",
            "type": "function"
        },
        {
            "inputs": [],
            "name": "getDefaultRoyaltyDistribution",
            "outputs": [
                {
                    "components": [
                        {
                            "internalType": "address",
                            "name": "collaborator",
                            "type": "address"
                        },
                        {
                            "internalType": "uint256",
                            "name": "share",
                            "type": "uint256"
                        }
                    ],
                    "internalType": "struct RoyaltyDistribution.RoyaltyShare[]",
                    "name": "",
                    "type": "tuple[]"
                }
            ],
            "stateMutability": "view",
            "type": "function"
        },
        {
            "inputs": [
                {
                    "internalType": "uint256",
                    "name": "tokenId",
                    "type": "uint256"
                }
            ],
            "name": "getTokenRoyaltyDistribution",
            "outputs": [
                {
                    "components": [
                        {
                            "internalType": "address",
                            "name": "collaborator",
                            "type": "address"
                        },
                        {
                            "internalType": "uint256",
                            "name": "share",
                            "type": "uint256"
                        }
                    ],
                    "internalType": "struct RoyaltyDistribution.RoyaltyShare[]",
                    "name": "",
                    "type": "tuple[]"
                }
            ],
            "stateMutability": "view",
            "type": "function"
        },
        {
            "inputs": [],
            "name": "globalRoyalty",
            "outputs": [
                {
                    "internalType": "uint256",
                    "name": "",
                    "type": "uint256"
                }
            ],
            "stateMutability": "view",
            "type": "function"
        },
        {
            "inputs": [],
            "name": "globalRoyaltyEnabled",
            "outputs": [
                {
                    "internalType": "bool",
                    "name": "",
                    "type": "bool"
                }
            ],
            "stateMutability": "view",
            "type": "function"
        },
        {
            "inputs": [
                {
                    "internalType": "address",
                    "name": "owner",
                    "type": "address"
                },
                {
                    "internalType": "address",
                    "name": "operator",
                    "type": "address"
                }
            ],
            "name": "isApprovedForAll",
            "outputs": [
                {
                    "internalType": "bool",
                    "name": "",
                    "type": "bool"
                }
            ],
            "stateMutability": "view",
            "type": "function"
        },
        {
            "inputs": [
                {
                    "internalType": "address",
                    "name": "to",
                    "type": "address"
                },
                {
                    "internalType": "uint256",
                    "name": "tokenId",
                    "type": "uint256"
                }
            ],
            "name": "lazyMint",
            "outputs": [],
            "stateMutability": "nonpayable",
            "type": "function"
        },
        {
            "inputs": [
                {
                    "internalType": "address",
                    "name": "to",
                    "type": "address"
                },
                {
                    "internalType": "uint256",
                    "name": "tokenId",
                    "type": "uint256"
                }
            ],
            "name": "mint",
            "outputs": [],
            "stateMutability": "nonpayable",
            "type": "function"
        },
        {
            "inputs": [],
            "name": "name",
            "outputs": [
                {
                    "internalType": "string",
                    "name": "",
                    "type": "string"
                }
            ],
            "stateMutability": "view",
            "type": "function"
        },
        {
            "inputs": [],
            "name": "owner",
            "outputs": [
                {
                    "internalType": "address",
                    "name": "",
                    "type": "address"
                }
            ],
            "stateMutability": "view",
            "type": "function"
        },
        {
            "inputs": [
                {
                    "internalType": "uint256",
                    "name": "tokenId",
                    "type": "uint256"
                }
            ],
            "name": "ownerOf",
            "outputs": [
                {
                    "internalType": "address",
                    "name": "",
                    "type": "address"
                }
            ],
            "stateMutability": "view",
            "type": "function"
        },
        {
            "inputs": [],
            "name": "renounceOwnership",
            "outputs": [],
            "stateMutability": "nonpayable",
            "type": "function"
        },
        {
            "inputs": [],
            "name": "royaltyDistributionEnabled",
            "outputs": [
                {
                    "internalType": "bool",
                    "name": "",
                    "type": "bool"
                }
            ],
            "stateMutability": "view",
            "type": "function"
        },
        {
            "inputs": [
                {
                    "internalType": "uint256",
                    "name": "_tokenId",
                    "type": "uint256"
                },
                {
                    "internalType": "uint256",
                    "name": "_salePrice",
                    "type": "uint256"
                }
            ],
            "name": "royaltyInfo",
            "outputs": [
                {
                    "internalType": "address",
                    "name": "receiver",
                    "type": "address"
                },
                {
                    "internalType": "uint256",
                    "name": "royaltyAmount",
                    "type": "uint256"
                }
            ],
            "stateMutability": "view",
            "type": "function"
        },
        {
            "inputs": [],
            "name": "royaltyReceiver",
            "outputs": [
                {
                    "internalType": "address",
                    "name": "",
                    "type": "address"
                }
            ],
            "stateMutability": "view",
            "type": "function"
        },
        {
            "inputs": [
                {
                    "internalType": "address",
                    "name": "from",
                    "type": "address"
                },
                {
                    "internalType": "address",
                    "name": "to",
                    "type": "address"
                },
                {
                    "internalType": "uint256",
                    "name": "tokenId",
                    "type": "uint256"
                }
            ],
            "name": "safeTransferFrom",
            "outputs": [],
            "stateMutability": "nonpayable",
            "type": "function"
        },
        {
            "inputs": [
                {
                    "internalType": "address",
                    "name": "from",
                    "type": "address"
                },
                {
                    "internalType": "address",
                    "name": "to",
                    "type": "address"
                },
                {
                    "internalType": "uint256",
                    "name": "tokenId",
                    "type": "uint256"
                },
                {
                    "internalType": "bytes",
                    "name": "_data",
                    "type": "bytes"
                }
            ],
            "name": "safeTransferFrom",
            "outputs": [],
            "stateMutability": "nonpayable",
            "type": "function"
        },
        {
            "inputs": [
                {
                    "internalType": "address",
                    "name": "operator",
                    "type": "address"
                },
                {
                    "internalType": "bool",
                    "name": "approved",
                    "type": "bool"
                }
            ],
            "name": "setApprovalForAll",
            "outputs": [],
            "stateMutability": "nonpayable",
            "type": "function"
        },
        {
            "inputs": [
                {
                    "internalType": "address[]",
                    "name": "collaborators",
                    "type": "address[]"
                },
                {
                    "internalType": "uint256[]",
                    "name": "shares",
                    "type": "uint256[]"
                }
            ],
            "name": "setDefaultRoyaltyDistribution",
            "outputs": [],
            "stateMutability": "nonpayable",
            "type": "function"
        },
        {
            "inputs": [
                {
                    "internalType": "uint256",
                    "name": "_royalty",
                    "type": "uint256"
                }
            ],
            "name": "setGlobalRoyalty",
            "outputs": [],
            "stateMutability": "nonpayable",
            "type": "function"
        },
        {
            "inputs": [
                {
                    "internalType": "address",
                    "name": "newRoyaltyReceiver",
                    "type": "address"
                }
            ],
            "name": "setRoyaltyReceiver",
            "outputs": [],
            "stateMutability": "nonpayable",
            "type": "function"
        },
        {
            "inputs": [
                {
                    "internalType": "uint256",
                    "name": "_royalty",
                    "type": "uint256"
                },
                {
                    "internalType": "uint256",
                    "name": "_tokenId",
                    "type": "uint256"
                }
            ],
            "name": "setTokenRoyalty",
            "outputs": [],
            "stateMutability": "nonpayable",
            "type": "function"
        },
        {
            "inputs": [
                {
                    "internalType": "address[]",
                    "name": "collaborators",
                    "type": "address[]"
                },
                {
                    "internalType": "uint256[]",
                    "name": "shares",
                    "type": "uint256[]"
                },
                {
                    "internalType": "uint256",
                    "name": "tokenId",
                    "type": "uint256"
                }
            ],
            "name": "setTokenRoyaltyDistribution",
            "outputs": [],
            "stateMutability": "nonpayable",
            "type": "function"
        },
        {
            "inputs": [
                {
                    "internalType": "string",
                    "name": "uri_",
                    "type": "string"
                }
            ],
            "name": "setURI",
            "outputs": [],
            "stateMutability": "nonpayable",
            "type": "function"
        },
        {
            "inputs": [
                {
                    "internalType": "bytes4",
                    "name": "interfaceId",
                    "type": "bytes4"
                }
            ],
            "name": "supportsInterface",
            "outputs": [
                {
                    "internalType": "bool",
                    "name": "",
                    "type": "bool"
                }
            ],
            "stateMutability": "view",
            "type": "function"
        },
        {
            "inputs": [],
            "name": "symbol",
            "outputs": [
                {
                    "internalType": "string",
                    "name": "",
                    "type": "string"
                }
            ],
            "stateMutability": "view",
            "type": "function"
        },
        {
            "inputs": [
                {
                    "internalType": "uint256",
                    "name": "",
                    "type": "uint256"
                },
                {
                    "internalType": "uint256",
                    "name": "",
                    "type": "uint256"
                }
            ],
            "name": "tokenCollaboratorsRoyaltyShare",
            "outputs": [
                {
                    "internalType": "address",
                    "name": "collaborator",
                    "type": "address"
                },
                {
                    "internalType": "uint256",
                    "name": "share",
                    "type": "uint256"
                }
            ],
            "stateMutability": "view",
            "type": "function"
        },
        {
            "inputs": [
                {
                    "internalType": "uint256",
                    "name": "",
                    "type": "uint256"
                }
            ],
            "name": "tokenRoyalty",
            "outputs": [
                {
                    "internalType": "uint256",
                    "name": "",
                    "type": "uint256"
                }
            ],
            "stateMutability": "view",
            "type": "function"
        },
        {
            "inputs": [
                {
                    "internalType": "uint256",
                    "name": "tokenId",
                    "type": "uint256"
                }
            ],
            "name": "tokenURI",
            "outputs": [
                {
                    "internalType": "string",
                    "name": "",
                    "type": "string"
                }
            ],
            "stateMutability": "view",
            "type": "function"
        },
        {
            "inputs": [
                {
                    "internalType": "address",
                    "name": "from",
                    "type": "address"
                },
                {
                    "internalType": "address",
                    "name": "to",
                    "type": "address"
                },
                {
                    "internalType": "uint256",
                    "name": "tokenId",
                    "type": "uint256"
                }
            ],
            "name": "transferFrom",
            "outputs": [],
            "stateMutability": "nonpayable",
            "type": "function"
        },
        {
            "inputs": [
                {
                    "internalType": "address",
                    "name": "newOwner",
                    "type": "address"
                }
            ],
            "name": "transferOwnership",
            "outputs": [],
            "stateMutability": "nonpayable",
            "type": "function"
        }
    ],
    "bytecode": "0x60806040526000805461ffff60a01b191661010160a01b1790553480156200002657600080fd5b5060405162002a0338038062002a0383398101604081905262000049916200038c565b85858585858583836200005c33620000f1565b81516200007190600690602085019062000216565b5080516200008790600790602084019062000216565b505082516200009f9150600c90602085019062000216565b506001819055620000b08662000141565b5050600580546001600160a01b039586166001600160a01b031991821617909155600d805494909516931692909217909255506200049b9650505050505050565b600080546001600160a01b038381166001600160a01b0319831681178455604051919092169283917f8be0079c531659141344cd1fd0a4f28419497f9722a3daafe3b4186f6b6457e09190a35050565b6000546001600160a01b03163314620001a15760405162461bcd60e51b815260206004820181905260248201527f4f776e61626c653a2063616c6c6572206973206e6f7420746865206f776e657260448201526064015b60405180910390fd5b6001600160a01b038116620002085760405162461bcd60e51b815260206004820152602660248201527f4f776e61626c653a206e6577206f776e657220697320746865207a65726f206160448201526564647265737360d01b606482015260840162000198565b6200021381620000f1565b50565b828054620002249062000448565b90600052602060002090601f01602090048101928262000248576000855562000293565b82601f106200026357805160ff191683800117855562000293565b8280016001018555821562000293579182015b828111156200029357825182559160200191906001019062000276565b50620002a1929150620002a5565b5090565b5b80821115620002a15760008155600101620002a6565b80516001600160a01b0381168114620002d457600080fd5b919050565b600082601f830112620002ea578081fd5b81516001600160401b038082111562000307576200030762000485565b604051601f8301601f19908116603f0116810190828211818310171562000332576200033262000485565b816040528381526020925086838588010111156200034e578485fd5b8491505b8382101562000371578582018301518183018401529082019062000352565b838211156200038257848385830101525b9695505050505050565b60008060008060008060c08789031215620003a5578182fd5b620003b087620002bc565b9550620003c060208801620002bc565b60408801519095506001600160401b0380821115620003dd578384fd5b620003eb8a838b01620002d9565b9550606089015191508082111562000401578384fd5b6200040f8a838b01620002d9565b9450608089015191508082111562000425578384fd5b506200043489828a01620002d9565b92505060a087015190509295509295509295565b600181811c908216806200045d57607f821691505b602082108114156200047f57634e487b7160e01b600052602260045260246000fd5b50919050565b634e487b7160e01b600052604160045260246000fd5b61255880620004ab6000396000f3fe608060405234801561001057600080fd5b50600436106102485760003560e01c80636352211e1161013b578063a22cb465116100b8578063e8c152051161007c578063e8c1520514610511578063e985e9c514610525578063ee2dd6d114610561578063f2fde38b14610569578063f8ef6b711461057c57610248565b8063a22cb465146104b2578063b0de83a3146104c5578063b88d4fde146104d8578063bc189d38146104eb578063c87b56dd146104fe57610248565b80638dc251e3116100ff5780638dc251e31461047457806395d89b41146104875780639fbc87131461048f5780639fc28f81146104a2578063a0c7489d146104aa57610248565b80636352211e1461042d5780636c0360eb1461044057806370a0823114610448578063715018a61461045b5780638da5cb5b1461046357610248565b8063336b44bb116101c9578063483b81ef1161018d578063483b81ef146103d857806349d72147146103e15780634e6836ab146103f45780634f558e791461040757806359112bb31461041a57610248565b8063336b44bb1461037757806340c10f191461038a57806342842e0e1461039d57806344537520146103b057806348375f84146103b857610248565b8063095ea7b311610210578063095ea7b3146102de5780631763b4a8146102f15780631ff4a4201461030457806323b872dd146103325780632a55205a1461034557610248565b8063012e46b61461024d57806301ffc9a71461027657806302fe53051461028957806306fdde031461029e578063081812fc146102b3575b600080fd5b60005461026190600160a81b900460ff1681565b60405190151581526020015b60405180910390f35b610261610284366004612140565b610584565b61029c610297366004612178565b6105e7565b005b6102a6610668565b60405161026d91906122e7565b6102c66102c13660046121be565b6106fa565b6040516001600160a01b03909116815260200161026d565b61029c6102ec36600461203d565b61078f565b61029c6102ff366004612066565b6108a5565b6103246103123660046121be565b60026020526000908152604090205481565b60405190815260200161026d565b61029c610340366004611f4f565b610a9c565b6103586103533660046121d6565b610acd565b604080516001600160a01b03909316835260208301919091520161026d565b61029c61038536600461203d565b610b64565b61029c61039836600461203d565b610bbb565b61029c6103ab366004611f4f565b610be5565b61029c610c00565b6103cb6103c63660046121be565b610c3f565b60405161026d919061228f565b61032460015481565b6103586103ef3660046121d6565b610cc7565b61029c6104023660046120cf565b610d0d565b6102616104153660046121be565b610f21565b600d546102c6906001600160a01b031681565b6102c661043b3660046121be565b610f40565b6102a6610fb7565b610324610456366004611f03565b610fc6565b61029c61104d565b6000546001600160a01b03166102c6565b61029c610482366004611f03565b611083565b6102a6611183565b6005546102c6906001600160a01b031681565b6103cb611192565b61029c611207565b61029c6104c0366004612003565b611246565b61029c6104d33660046121be565b611318565b61029c6104e6366004611f8a565b61138f565b61029c6104f93660046121d6565b6113c7565b6102a661050c3660046121be565b61144a565b60005461026190600160a01b900460ff1681565b610261610533366004611f1d565b6001600160a01b039182166000908152600b6020908152604080832093909416825291909152205460ff1690565b61029c6114a8565b61029c610577366004611f03565b6114e1565b61029c61157c565b60006001600160e01b0319821663152a902d60e11b14806105b557506001600160e01b0319821663f19b019960e01b145b806105d057506001600160e01b03198216631189900560e11b145b806105df57506105df826115b5565b90505b919050565b6000546001600160a01b0316331461061a5760405162461bcd60e51b81526004016106119061234c565b60405180910390fd5b805161062d90600c906020840190611d53565b507fbabd00c52f3ac8b66511ad0c5d9680f0417ad32bf6c8fede4cb2d45820353bc58160405161065d91906122e7565b60405180910390a150565b60606006805461067790612460565b80601f01602080910402602001604051908101604052809291908181526020018280546106a390612460565b80156106f05780601f106106c5576101008083540402835291602001916106f0565b820191906000526020600020905b8154815290600101906020018083116106d357829003601f168201915b5050505050905090565b6000818152600860205260408120546001600160a01b03166107735760405162461bcd60e51b815260206004820152602c60248201527f4552433732313a20617070726f76656420717565727920666f72206e6f6e657860448201526b34b9ba32b73a103a37b5b2b760a11b6064820152608401610611565b506000908152600a60205260409020546001600160a01b031690565b600061079a82610f40565b9050806001600160a01b0316836001600160a01b031614156108085760405162461bcd60e51b815260206004820152602160248201527f4552433732313a20617070726f76616c20746f2063757272656e74206f776e656044820152603960f91b6064820152608401610611565b336001600160a01b038216148061082457506108248133610533565b6108965760405162461bcd60e51b815260206004820152603860248201527f4552433732313a20617070726f76652063616c6c6572206973206e6f74206f7760448201527f6e6572206e6f7220617070726f76656420666f7220616c6c00000000000000006064820152608401610611565b6108a08383611605565b505050565b6000546001600160a01b031633146108cf5760405162461bcd60e51b81526004016106119061234c565b8281146109125760405162461bcd60e51b8152602060048201526011602482015270082e4e4c2f2e640c8dedce840dac2e8c6d607b1b6044820152606401610611565b6000805b828110156109645783838281811061093e57634e487b7160e01b600052603260045260246000fd5b905060200201358261095091906123d2565b91508061095c8161249b565b915050610916565b506127108111156109ae5760405162461bcd60e51b81526020600482015260146024820152730546f74616c20736861726573203e2031303030360641b6044820152606401610611565b6109ba60036000611dd7565b60005b84811015610a9457600360405180604001604052808888858181106109f257634e487b7160e01b600052603260045260246000fd5b9050602002016020810190610a079190611f03565b6001600160a01b03168152602001868685818110610a3557634e487b7160e01b600052603260045260246000fd5b60209081029290920135909252835460018082018655600095865294829020845160029092020180546001600160a01b0319166001600160a01b0390921691909117815592015191909201555080610a8c8161249b565b9150506109bd565b505050505050565b610aa63382611673565b610ac25760405162461bcd60e51b815260040161061190612381565b6108a083838361176a565b6000805481908190600160a01b900460ff1615610b4857600085815260026020526040902054610b195761271060015485610b0891906123fe565b610b1291906123ea565b9050610b43565b60008581526002602052604090205461271090610b3690866123fe565b610b4091906123ea565b90505b610b4c565b5060005b6005546001600160a01b0316925090505b9250929050565b600d546001600160a01b03163314610bad5760405162461bcd60e51b815260206004820152600c60248201526b155b985d5d1a1bdc9a5e995960a21b6044820152606401610611565b610bb7828261190a565b5050565b6000546001600160a01b03163314610bad5760405162461bcd60e51b81526004016106119061234c565b6108a08383836040518060200160405280600081525061138f565b6000546001600160a01b03163314610c2a5760405162461bcd60e51b81526004016106119061234c565b6000805460ff60a81b1916600160a81b179055565b606060046000838152602001908152602001600020805480602002602001604051908101604052809291908181526020016000905b82821015610cbc576000848152602090819020604080518082019091526002850290910180546001600160a01b03168252600190810154828401529083529092019101610c74565b505050509050919050565b60046020528160005260406000208181548110610ce357600080fd5b6000918252602090912060029091020180546001909101546001600160a01b039091169250905082565b6000546001600160a01b03163314610d375760405162461bcd60e51b81526004016106119061234c565b838214610d7a5760405162461bcd60e51b8152602060048201526011602482015270082e4e4c2f2e640c8dedce840dac2e8c6d607b1b6044820152606401610611565b6000805b83811015610dcc57848482818110610da657634e487b7160e01b600052603260045260246000fd5b9050602002013582610db891906123d2565b915080610dc48161249b565b915050610d7e565b50612710811115610e165760405162461bcd60e51b81526020600482015260146024820152730546f74616c20736861726573203e2031303030360641b6044820152606401610611565b6000828152600460205260408120610e2d91611dd7565b60005b85811015610f1857600460008481526020019081526020016000206040518060400160405280898985818110610e7657634e487b7160e01b600052603260045260246000fd5b9050602002016020810190610e8b9190611f03565b6001600160a01b03168152602001878785818110610eb957634e487b7160e01b600052603260045260246000fd5b60209081029290920135909252835460018082018655600095865294829020845160029092020180546001600160a01b0319166001600160a01b0390921691909117815592015191909201555080610f108161249b565b915050610e30565b50505050505050565b6000818152600860205260408120546001600160a01b031615156105df565b6000818152600860205260408120546001600160a01b0316806105df5760405162461bcd60e51b815260206004820152602960248201527f4552433732313a206f776e657220717565727920666f72206e6f6e657869737460448201526832b73a103a37b5b2b760b91b6064820152608401610611565b6060610fc1611924565b905090565b60006001600160a01b0382166110315760405162461bcd60e51b815260206004820152602a60248201527f4552433732313a2062616c616e636520717565727920666f7220746865207a65604482015269726f206164647265737360b01b6064820152608401610611565b506001600160a01b031660009081526009602052604090205490565b6000546001600160a01b031633146110775760405162461bcd60e51b81526004016106119061234c565b6110816000611933565b565b6000546001600160a01b031633146110ad5760405162461bcd60e51b81526004016106119061234c565b6001600160a01b0381166110f85760405162461bcd60e51b815260206004820152601260248201527143616e74207365742030206164647265737360701b6044820152606401610611565b6005546001600160a01b03828116911614156111615760405162461bcd60e51b815260206004820152602260248201527f54686973206164647265737320697320616c726561647920612072656365697660448201526132b960f11b6064820152608401610611565b600580546001600160a01b0319166001600160a01b0392909216919091179055565b60606007805461067790612460565b60606003805480602002602001604051908101604052809291908181526020016000905b828210156111fe576000848152602090819020604080518082019091526002850290910180546001600160a01b031682526001908101548284015290835290920191016111b6565b50505050905090565b6000546001600160a01b031633146112315760405162461bcd60e51b81526004016106119061234c565b6000805460ff60a01b1916600160a01b179055565b6001600160a01b03821633141561129f5760405162461bcd60e51b815260206004820152601960248201527f4552433732313a20617070726f766520746f2063616c6c6572000000000000006044820152606401610611565b336000818152600b602090815260408083206001600160a01b0387168085529252909120805460ff1916841515179055906001600160a01b03167f17307eab39ab6107e8899845ad3d59bd9653f200f220920489ca2b5937696c318360405161130c911515815260200190565b60405180910390a35050565b6000546001600160a01b031633146113425760405162461bcd60e51b81526004016106119061234c565b61232881111561138a5760405162461bcd60e51b8152602060048201526013602482015272526f79616c7479206973206f7665722039302560681b6044820152606401610611565b600155565b6113993383611673565b6113b55760405162461bcd60e51b815260040161061190612381565b6113c184848484611983565b50505050565b6000546001600160a01b031633146113f15760405162461bcd60e51b81526004016106119061234c565b6123288211156114395760405162461bcd60e51b8152602060048201526013602482015272526f79616c7479206973206f7665722039302560681b6044820152606401610611565b600090815260026020526040902055565b60606000611456611924565b9050600081511161147657604051806020016040528060008152506114a1565b80611480846119b6565b604051602001611491929190612223565b6040516020818303038152906040525b9392505050565b6000546001600160a01b031633146114d25760405162461bcd60e51b81526004016106119061234c565b6000805460ff60a01b19169055565b6000546001600160a01b0316331461150b5760405162461bcd60e51b81526004016106119061234c565b6001600160a01b0381166115705760405162461bcd60e51b815260206004820152602660248201527f4f776e61626c653a206e6577206f776e657220697320746865207a65726f206160448201526564647265737360d01b6064820152608401610611565b61157981611933565b50565b6000546001600160a01b031633146115a65760405162461bcd60e51b81526004016106119061234c565b6000805460ff60a81b19169055565b60006001600160e01b031982166380ac58cd60e01b14806115e657506001600160e01b03198216635b5e139f60e01b145b806105df57506301ffc9a760e01b6001600160e01b03198316146105df565b6000818152600a6020526040902080546001600160a01b0319166001600160a01b038416908117909155819061163a82610f40565b6001600160a01b03167f8c5be1e5ebec7d5bd14f71427d1e84f3dd0314c0f7b2291e5b200ac8c7c3b92560405160405180910390a45050565b6000818152600860205260408120546001600160a01b03166116ec5760405162461bcd60e51b815260206004820152602c60248201527f4552433732313a206f70657261746f7220717565727920666f72206e6f6e657860448201526b34b9ba32b73a103a37b5b2b760a11b6064820152608401610611565b60006116f783610f40565b9050806001600160a01b0316846001600160a01b031614806117325750836001600160a01b0316611727846106fa565b6001600160a01b0316145b8061176257506001600160a01b038082166000908152600b602090815260408083209388168352929052205460ff165b949350505050565b826001600160a01b031661177d82610f40565b6001600160a01b0316146117e55760405162461bcd60e51b815260206004820152602960248201527f4552433732313a207472616e73666572206f6620746f6b656e2074686174206960448201526839903737ba1037bbb760b91b6064820152608401610611565b6001600160a01b0382166118475760405162461bcd60e51b8152602060048201526024808201527f4552433732313a207472616e7366657220746f20746865207a65726f206164646044820152637265737360e01b6064820152608401610611565b611852600082611605565b6001600160a01b038316600090815260096020526040812080546001929061187b90849061241d565b90915550506001600160a01b03821660009081526009602052604081208054600192906118a99084906123d2565b909155505060008181526008602052604080822080546001600160a01b0319166001600160a01b0386811691821790925591518493918716917fddf252ad1be2c89b69c2b068fc378daa952ba7f163c4a11628f55a4df523b3ef91a4505050565b610bb7828260405180602001604052806000815250611ad1565b6060600c805461067790612460565b600080546001600160a01b038381166001600160a01b0319831681178455604051919092169283917f8be0079c531659141344cd1fd0a4f28419497f9722a3daafe3b4186f6b6457e09190a35050565b61198e84848461176a565b61199a84848484611b04565b6113c15760405162461bcd60e51b8152600401610611906122fa565b6060816119db57506040805180820190915260018152600360fc1b60208201526105e2565b8160005b8115611a0557806119ef8161249b565b91506119fe9050600a836123ea565b91506119df565b60008167ffffffffffffffff811115611a2e57634e487b7160e01b600052604160045260246000fd5b6040519080825280601f01601f191660200182016040528015611a58576020820181803683370190505b5090505b841561176257611a6d60018361241d565b9150611a7a600a866124b6565b611a859060306123d2565b60f81b818381518110611aa857634e487b7160e01b600052603260045260246000fd5b60200101906001600160f81b031916908160001a905350611aca600a866123ea565b9450611a5c565b611adb8383611c11565b611ae86000848484611b04565b6108a05760405162461bcd60e51b8152600401610611906122fa565b60006001600160a01b0384163b15611c0657604051630a85bd0160e11b81526001600160a01b0385169063150b7a0290611b48903390899088908890600401612252565b602060405180830381600087803b158015611b6257600080fd5b505af1925050508015611b92575060408051601f3d908101601f19168201909252611b8f9181019061215c565b60015b611bec573d808015611bc0576040519150601f19603f3d011682016040523d82523d6000602084013e611bc5565b606091505b508051611be45760405162461bcd60e51b8152600401610611906122fa565b805181602001fd5b6001600160e01b031916630a85bd0160e11b149050611762565b506001949350505050565b6001600160a01b038216611c675760405162461bcd60e51b815260206004820181905260248201527f4552433732313a206d696e7420746f20746865207a65726f20616464726573736044820152606401610611565b6000818152600860205260409020546001600160a01b031615611ccc5760405162461bcd60e51b815260206004820152601c60248201527f4552433732313a20746f6b656e20616c7265616479206d696e746564000000006044820152606401610611565b6001600160a01b0382166000908152600960205260408120805460019290611cf59084906123d2565b909155505060008181526008602052604080822080546001600160a01b0319166001600160a01b03861690811790915590518392907fddf252ad1be2c89b69c2b068fc378daa952ba7f163c4a11628f55a4df523b3ef908290a45050565b828054611d5f90612460565b90600052602060002090601f016020900481019282611d815760008555611dc7565b82601f10611d9a57805160ff1916838001178555611dc7565b82800160010185558215611dc7579182015b82811115611dc7578251825591602001919060010190611dac565b50611dd3929150611df8565b5090565b50805460008255600202906000526020600020908101906115799190611e0d565b5b80821115611dd35760008155600101611df9565b5b80821115611dd35780546001600160a01b031916815560006001820155600201611e0e565b600067ffffffffffffffff80841115611e4e57611e4e6124f6565b604051601f8501601f19908116603f01168101908282118183101715611e7657611e766124f6565b81604052809350858152868686011115611e8f57600080fd5b858560208301376000602087830101525050509392505050565b80356001600160a01b03811681146105e257600080fd5b60008083601f840112611ed1578081fd5b50813567ffffffffffffffff811115611ee8578182fd5b6020830191508360208260051b8501011115610b5d57600080fd5b600060208284031215611f14578081fd5b6114a182611ea9565b60008060408385031215611f2f578081fd5b611f3883611ea9565b9150611f4660208401611ea9565b90509250929050565b600080600060608486031215611f63578081fd5b611f6c84611ea9565b9250611f7a60208501611ea9565b9150604084013590509250925092565b60008060008060808587031215611f9f578081fd5b611fa885611ea9565b9350611fb660208601611ea9565b925060408501359150606085013567ffffffffffffffff811115611fd8578182fd5b8501601f81018713611fe8578182fd5b611ff787823560208401611e33565b91505092959194509250565b60008060408385031215612015578182fd5b61201e83611ea9565b915060208301358015158114612032578182fd5b809150509250929050565b6000806040838503121561204f578182fd5b61205883611ea9565b946020939093013593505050565b6000806000806040858703121561207b578384fd5b843567ffffffffffffffff80821115612092578586fd5b61209e88838901611ec0565b909650945060208701359150808211156120b6578384fd5b506120c387828801611ec0565b95989497509550505050565b6000806000806000606086880312156120e6578081fd5b853567ffffffffffffffff808211156120fd578283fd5b61210989838a01611ec0565b90975095506020880135915080821115612121578283fd5b5061212e88828901611ec0565b96999598509660400135949350505050565b600060208284031215612151578081fd5b81356114a18161250c565b60006020828403121561216d578081fd5b81516114a18161250c565b600060208284031215612189578081fd5b813567ffffffffffffffff81111561219f578182fd5b8201601f810184136121af578182fd5b61176284823560208401611e33565b6000602082840312156121cf578081fd5b5035919050565b600080604083850312156121e8578182fd5b50508035926020909101359150565b6000815180845261220f816020860160208601612434565b601f01601f19169290920160200192915050565b60008351612235818460208801612434565b835190830190612249818360208801612434565b01949350505050565b6001600160a01b0385811682528416602082015260408101839052608060608201819052600090612285908301846121f7565b9695505050505050565b602080825282518282018190526000919060409081850190868401855b828110156122da57815180516001600160a01b031685528601518685015292840192908501906001016122ac565b5091979650505050505050565b6000602082526114a160208301846121f7565b60208082526032908201527f4552433732313a207472616e7366657220746f206e6f6e20455243373231526560408201527131b2b4bb32b91034b6b83632b6b2b73a32b960711b606082015260800190565b6020808252818101527f4f776e61626c653a2063616c6c6572206973206e6f7420746865206f776e6572604082015260600190565b60208082526031908201527f4552433732313a207472616e736665722063616c6c6572206973206e6f74206f6040820152701ddb995c881b9bdc88185c1c1c9bdd9959607a1b606082015260800190565b600082198211156123e5576123e56124ca565b500190565b6000826123f9576123f96124e0565b500490565b6000816000190483118215151615612418576124186124ca565b500290565b60008282101561242f5761242f6124ca565b500390565b60005b8381101561244f578181015183820152602001612437565b838111156113c15750506000910152565b600181811c9082168061247457607f821691505b6020821081141561249557634e487b7160e01b600052602260045260246000fd5b50919050565b60006000198214156124af576124af6124ca565b5060010190565b6000826124c5576124c56124e0565b500690565b634e487b7160e01b600052601160045260246000fd5b634e487b7160e01b600052601260045260246000fd5b634e487b7160e01b600052604160045260246000fd5b6001600160e01b03198116811461157957600080fdfea26469706673582212203d0f3206096350e738a4e08788facb0e8093bb5af0a5819e2a6ee0c6a15dcac164736f6c63430008030033",
    "linkReferences": {},
    "deployedLinkReferences": {}
}