{
    "_format": "hh-sol-artifact-1",
    "contractName": "SimpleERC1155",
    "sourceName": "contracts/NFT/SimpleERC1155.sol",
    "abi": [
        {
            "inputs": [
                {
                    "internalType": "address",
                    "name": "owner_",
                    "type": "address"
                },
                {
                    "internalType": "address",
                    "name": "decryptMarketplaceAddress_",
                    "type": "address"
                },
                {
                    "internalType": "string",
                    "name": "uri_",
                    "type": "string"
                },
                {
                    "internalType": "uint256",
                    "name": "royalty_",
                    "type": "uint256"
                }
            ],
            "stateMutability": "nonpayable",
            "type": "constructor"
        },
        {
            "anonymous": false,
            "inputs": [
                {
                    "indexed": true,
                    "internalType": "address",
                    "name": "account",
                    "type": "address"
                },
                {
                    "indexed": true,
                    "internalType": "address",
                    "name": "operator",
                    "type": "address"
                },
                {
                    "indexed": false,
                    "internalType": "bool",
                    "name": "approved",
                    "type": "bool"
                }
            ],
            "name": "ApprovalForAll",
            "type": "event"
        },
        {
            "anonymous": false,
            "inputs": [
                {
                    "indexed": true,
                    "internalType": "address",
                    "name": "previousOwner",
                    "type": "address"
                },
                {
                    "indexed": true,
                    "internalType": "address",
                    "name": "newOwner",
                    "type": "address"
                }
            ],
            "name": "OwnershipTransferred",
            "type": "event"
        },
        {
            "anonymous": false,
            "inputs": [
                {
                    "indexed": true,
                    "internalType": "address",
                    "name": "operator",
                    "type": "address"
                },
                {
                    "indexed": true,
                    "internalType": "address",
                    "name": "from",
                    "type": "address"
                },
                {
                    "indexed": true,
                    "internalType": "address",
                    "name": "to",
                    "type": "address"
                },
                {
                    "indexed": false,
                    "internalType": "uint256[]",
                    "name": "ids",
                    "type": "uint256[]"
                },
                {
                    "indexed": false,
                    "internalType": "uint256[]",
                    "name": "values",
                    "type": "uint256[]"
                }
            ],
            "name": "TransferBatch",
            "type": "event"
        },
        {
            "anonymous": false,
            "inputs": [
                {
                    "indexed": true,
                    "internalType": "address",
                    "name": "operator",
                    "type": "address"
                },
                {
                    "indexed": true,
                    "internalType": "address",
                    "name": "from",
                    "type": "address"
                },
                {
                    "indexed": true,
                    "internalType": "address",
                    "name": "to",
                    "type": "address"
                },
                {
                    "indexed": false,
                    "internalType": "uint256",
                    "name": "id",
                    "type": "uint256"
                },
                {
                    "indexed": false,
                    "internalType": "uint256",
                    "name": "value",
                    "type": "uint256"
                }
            ],
            "name": "TransferSingle",
            "type": "event"
        },
        {
            "anonymous": false,
            "inputs": [
                {
                    "indexed": false,
                    "internalType": "string",
                    "name": "value",
                    "type": "string"
                },
                {
                    "indexed": true,
                    "internalType": "uint256",
                    "name": "id",
                    "type": "uint256"
                }
            ],
            "name": "URI",
            "type": "event"
        },
        {
            "anonymous": false,
            "inputs": [
                {
                    "indexed": false,
                    "internalType": "string",
                    "name": "_uri",
                    "type": "string"
                }
            ],
            "name": "UpdatedURI",
            "type": "event"
        },
        {
            "inputs": [
                {
                    "internalType": "address",
                    "name": "account",
                    "type": "address"
                },
                {
                    "internalType": "uint256",
                    "name": "id",
                    "type": "uint256"
                }
            ],
            "name": "balanceOf",
            "outputs": [
                {
                    "internalType": "uint256",
                    "name": "",
                    "type": "uint256"
                }
            ],
            "stateMutability": "view",
            "type": "function"
        },
        {
            "inputs": [
                {
                    "internalType": "address[]",
                    "name": "accounts",
                    "type": "address[]"
                },
                {
                    "internalType": "uint256[]",
                    "name": "ids",
                    "type": "uint256[]"
                }
            ],
            "name": "balanceOfBatch",
            "outputs": [
                {
                    "internalType": "uint256[]",
                    "name": "",
                    "type": "uint256[]"
                }
            ],
            "stateMutability": "view",
            "type": "function"
        },
        {
            "inputs": [],
            "name": "decryptMarketplaceAddress",
            "outputs": [
                {
                    "internalType": "address",
                    "name": "",
                    "type": "address"
                }
            ],
            "stateMutability": "view",
            "type": "function"
        },
        {
            "inputs": [],
            "name": "disableRoyalty",
            "outputs": [],
            "stateMutability": "nonpayable",
            "type": "function"
        },
        {
            "inputs": [],
            "name": "disableRoyaltyDistribution",
            "outputs": [],
            "stateMutability": "nonpayable",
            "type": "function"
        },
        {
            "inputs": [],
            "name": "enableRoyalty",
            "outputs": [],
            "stateMutability": "nonpayable",
            "type": "function"
        },
        {
            "inputs": [],
            "name": "enableRoyaltyDistribution",
            "outputs": [],
            "stateMutability": "nonpayable",
            "type": "function"
        },
        {
            "inputs": [],
            "name": "getDefaultRoyaltyDistribution",
            "outputs": [
                {
                    "components": [
                        {
                            "internalType": "address",
                            "name": "collaborator",
                            "type": "address"
                        },
                        {
                            "internalType": "uint256",
                            "name": "share",
                            "type": "uint256"
                        }
                    ],
                    "internalType": "struct RoyaltyDistribution.RoyaltyShare[]",
                    "name": "",
                    "type": "tuple[]"
                }
            ],
            "stateMutability": "view",
            "type": "function"
        },
        {
            "inputs": [
                {
                    "internalType": "uint256",
                    "name": "tokenId",
                    "type": "uint256"
                }
            ],
            "name": "getTokenRoyaltyDistribution",
            "outputs": [
                {
                    "components": [
                        {
                            "internalType": "address",
                            "name": "collaborator",
                            "type": "address"
                        },
                        {
                            "internalType": "uint256",
                            "name": "share",
                            "type": "uint256"
                        }
                    ],
                    "internalType": "struct RoyaltyDistribution.RoyaltyShare[]",
                    "name": "",
                    "type": "tuple[]"
                }
            ],
            "stateMutability": "view",
            "type": "function"
        },
        {
            "inputs": [],
            "name": "globalRoyalty",
            "outputs": [
                {
                    "internalType": "uint256",
                    "name": "",
                    "type": "uint256"
                }
            ],
            "stateMutability": "view",
            "type": "function"
        },
        {
            "inputs": [],
            "name": "globalRoyaltyEnabled",
            "outputs": [
                {
                    "internalType": "bool",
                    "name": "",
                    "type": "bool"
                }
            ],
            "stateMutability": "view",
            "type": "function"
        },
        {
            "inputs": [
                {
                    "internalType": "address",
                    "name": "account",
                    "type": "address"
                },
                {
                    "internalType": "address",
                    "name": "operator",
                    "type": "address"
                }
            ],
            "name": "isApprovedForAll",
            "outputs": [
                {
                    "internalType": "bool",
                    "name": "",
                    "type": "bool"
                }
            ],
            "stateMutability": "view",
            "type": "function"
        },
        {
            "inputs": [
                {
                    "internalType": "address",
                    "name": "to",
                    "type": "address"
                },
                {
                    "internalType": "uint256",
                    "name": "tokenId",
                    "type": "uint256"
                },
                {
                    "internalType": "uint256",
                    "name": "amount",
                    "type": "uint256"
                }
            ],
            "name": "lazyMint",
            "outputs": [],
            "stateMutability": "nonpayable",
            "type": "function"
        },
        {
            "inputs": [
                {
                    "internalType": "address",
                    "name": "account",
                    "type": "address"
                },
                {
                    "internalType": "uint256",
                    "name": "id",
                    "type": "uint256"
                },
                {
                    "internalType": "uint256",
                    "name": "amount",
                    "type": "uint256"
                }
            ],
            "name": "mint",
            "outputs": [],
            "stateMutability": "nonpayable",
            "type": "function"
        },
        {
            "inputs": [
                {
                    "internalType": "address",
                    "name": "to",
                    "type": "address"
                },
                {
                    "internalType": "uint256[]",
                    "name": "ids",
                    "type": "uint256[]"
                },
                {
                    "internalType": "uint256[]",
                    "name": "amounts",
                    "type": "uint256[]"
                }
            ],
            "name": "mintBatch",
            "outputs": [],
            "stateMutability": "nonpayable",
            "type": "function"
        },
        {
            "inputs": [],
            "name": "owner",
            "outputs": [
                {
                    "internalType": "address",
                    "name": "",
                    "type": "address"
                }
            ],
            "stateMutability": "view",
            "type": "function"
        },
        {
            "inputs": [],
            "name": "renounceOwnership",
            "outputs": [],
            "stateMutability": "nonpayable",
            "type": "function"
        },
        {
            "inputs": [],
            "name": "royaltyDistributionEnabled",
            "outputs": [
                {
                    "internalType": "bool",
                    "name": "",
                    "type": "bool"
                }
            ],
            "stateMutability": "view",
            "type": "function"
        },
        {
            "inputs": [
                {
                    "internalType": "uint256",
                    "name": "_tokenId",
                    "type": "uint256"
                },
                {
                    "internalType": "uint256",
                    "name": "_salePrice",
                    "type": "uint256"
                }
            ],
            "name": "royaltyInfo",
            "outputs": [
                {
                    "internalType": "address",
                    "name": "receiver",
                    "type": "address"
                },
                {
                    "internalType": "uint256",
                    "name": "royaltyAmount",
                    "type": "uint256"
                }
            ],
            "stateMutability": "view",
            "type": "function"
        },
        {
            "inputs": [],
            "name": "royaltyReceiver",
            "outputs": [
                {
                    "internalType": "address",
                    "name": "",
                    "type": "address"
                }
            ],
            "stateMutability": "view",
            "type": "function"
        },
        {
            "inputs": [
                {
                    "internalType": "address",
                    "name": "from",
                    "type": "address"
                },
                {
                    "internalType": "address",
                    "name": "to",
                    "type": "address"
                },
                {
                    "internalType": "uint256[]",
                    "name": "ids",
                    "type": "uint256[]"
                },
                {
                    "internalType": "uint256[]",
                    "name": "amounts",
                    "type": "uint256[]"
                },
                {
                    "internalType": "bytes",
                    "name": "data",
                    "type": "bytes"
                }
            ],
            "name": "safeBatchTransferFrom",
            "outputs": [],
            "stateMutability": "nonpayable",
            "type": "function"
        },
        {
            "inputs": [
                {
                    "internalType": "address",
                    "name": "from",
                    "type": "address"
                },
                {
                    "internalType": "address",
                    "name": "to",
                    "type": "address"
                },
                {
                    "internalType": "uint256",
                    "name": "id",
                    "type": "uint256"
                },
                {
                    "internalType": "uint256",
                    "name": "amount",
                    "type": "uint256"
                },
                {
                    "internalType": "bytes",
                    "name": "data",
                    "type": "bytes"
                }
            ],
            "name": "safeTransferFrom",
            "outputs": [],
            "stateMutability": "nonpayable",
            "type": "function"
        },
        {
            "inputs": [
                {
                    "internalType": "address",
                    "name": "operator",
                    "type": "address"
                },
                {
                    "internalType": "bool",
                    "name": "approved",
                    "type": "bool"
                }
            ],
            "name": "setApprovalForAll",
            "outputs": [],
            "stateMutability": "nonpayable",
            "type": "function"
        },
        {
            "inputs": [
                {
                    "internalType": "address[]",
                    "name": "collaborators",
                    "type": "address[]"
                },
                {
                    "internalType": "uint256[]",
                    "name": "shares",
                    "type": "uint256[]"
                }
            ],
            "name": "setDefaultRoyaltyDistribution",
            "outputs": [],
            "stateMutability": "nonpayable",
            "type": "function"
        },
        {
            "inputs": [
                {
                    "internalType": "uint256",
                    "name": "_royalty",
                    "type": "uint256"
                }
            ],
            "name": "setGlobalRoyalty",
            "outputs": [],
            "stateMutability": "nonpayable",
            "type": "function"
        },
        {
            "inputs": [
                {
                    "internalType": "address",
                    "name": "newRoyaltyReceiver",
                    "type": "address"
                }
            ],
            "name": "setRoyaltyReceiver",
            "outputs": [],
            "stateMutability": "nonpayable",
            "type": "function"
        },
        {
            "inputs": [
                {
                    "internalType": "uint256",
                    "name": "_royalty",
                    "type": "uint256"
                },
                {
                    "internalType": "uint256",
                    "name": "_tokenId",
                    "type": "uint256"
                }
            ],
            "name": "setTokenRoyalty",
            "outputs": [],
            "stateMutability": "nonpayable",
            "type": "function"
        },
        {
            "inputs": [
                {
                    "internalType": "address[]",
                    "name": "collaborators",
                    "type": "address[]"
                },
                {
                    "internalType": "uint256[]",
                    "name": "shares",
                    "type": "uint256[]"
                },
                {
                    "internalType": "uint256",
                    "name": "tokenId",
                    "type": "uint256"
                }
            ],
            "name": "setTokenRoyaltyDistribution",
            "outputs": [],
            "stateMutability": "nonpayable",
            "type": "function"
        },
        {
            "inputs": [
                {
                    "internalType": "string",
                    "name": "uri_",
                    "type": "string"
                }
            ],
            "name": "setURI",
            "outputs": [],
            "stateMutability": "nonpayable",
            "type": "function"
        },
        {
            "inputs": [
                {
                    "internalType": "bytes4",
                    "name": "interfaceId",
                    "type": "bytes4"
                }
            ],
            "name": "supportsInterface",
            "outputs": [
                {
                    "internalType": "bool",
                    "name": "",
                    "type": "bool"
                }
            ],
            "stateMutability": "view",
            "type": "function"
        },
        {
            "inputs": [
                {
                    "internalType": "uint256",
                    "name": "",
                    "type": "uint256"
                },
                {
                    "internalType": "uint256",
                    "name": "",
                    "type": "uint256"
                }
            ],
            "name": "tokenCollaboratorsRoyaltyShare",
            "outputs": [
                {
                    "internalType": "address",
                    "name": "collaborator",
                    "type": "address"
                },
                {
                    "internalType": "uint256",
                    "name": "share",
                    "type": "uint256"
                }
            ],
            "stateMutability": "view",
            "type": "function"
        },
        {
            "inputs": [
                {
                    "internalType": "uint256",
                    "name": "",
                    "type": "uint256"
                }
            ],
            "name": "tokenRoyalty",
            "outputs": [
                {
                    "internalType": "uint256",
                    "name": "",
                    "type": "uint256"
                }
            ],
            "stateMutability": "view",
            "type": "function"
        },
        {
            "inputs": [
                {
                    "internalType": "address",
                    "name": "newOwner",
                    "type": "address"
                }
            ],
            "name": "transferOwnership",
            "outputs": [],
            "stateMutability": "nonpayable",
            "type": "function"
        },
        {
            "inputs": [
                {
                    "internalType": "uint256",
                    "name": "",
                    "type": "uint256"
                }
            ],
            "name": "uri",
            "outputs": [
                {
                    "internalType": "string",
                    "name": "",
                    "type": "string"
                }
            ],
            "stateMutability": "view",
            "type": "function"
        }
    ],
    "bytecode": "0x60806040526000805461ffff60a01b191661010160a01b1790553480156200002657600080fd5b5060405162002e0d38038062002e0d8339810160408190526200004991620002af565b83838383816200005933620000ae565b6200006481620000fe565b506001819055620000758462000117565b5050600580546001600160a01b039384166001600160a01b03199182161790915560098054929093169116179055506200040692505050565b600080546001600160a01b038381166001600160a01b0319831681178455604051919092169283917f8be0079c531659141344cd1fd0a4f28419497f9722a3daafe3b4186f6b6457e09190a35050565b805162000113906008906020840190620001ec565b5050565b6000546001600160a01b03163314620001775760405162461bcd60e51b815260206004820181905260248201527f4f776e61626c653a2063616c6c6572206973206e6f7420746865206f776e657260448201526064015b60405180910390fd5b6001600160a01b038116620001de5760405162461bcd60e51b815260206004820152602660248201527f4f776e61626c653a206e6577206f776e657220697320746865207a65726f206160448201526564647265737360d01b60648201526084016200016e565b620001e981620000ae565b50565b828054620001fa90620003b3565b90600052602060002090601f0160209004810192826200021e576000855562000269565b82601f106200023957805160ff191683800117855562000269565b8280016001018555821562000269579182015b82811115620002695782518255916020019190600101906200024c565b50620002779291506200027b565b5090565b5b808211156200027757600081556001016200027c565b80516001600160a01b0381168114620002aa57600080fd5b919050565b60008060008060808587031215620002c5578384fd5b620002d08562000292565b93506020620002e181870162000292565b60408701519094506001600160401b0380821115620002fe578485fd5b818801915088601f83011262000312578485fd5b815181811115620003275762000327620003f0565b604051601f8201601f19908116603f01168101908382118183101715620003525762000352620003f0565b816040528281528b868487010111156200036a578788fd5b8793505b828410156200038d57848401860151818501870152928501926200036e565b828411156200039e57878684830101525b60609a909a0151989b979a5050505050505050565b600181811c90821680620003c857607f821691505b60208210811415620003ea57634e487b7160e01b600052602260045260246000fd5b50919050565b634e487b7160e01b600052604160045260246000fd5b6129f780620004166000396000f3fe608060405234801561001057600080fd5b50600436106102055760003560e01c806359112bb31161011a578063b0de83a3116100ad578063e985e9c51161007c578063e985e9c514610482578063ee2dd6d1146104be578063f242432a146104c6578063f2fde38b146104d9578063f8ef6b71146104ec57610205565b8063b0de83a314610435578063bc189d3814610448578063d81d0a151461045b578063e8c152051461046e57610205565b80639fbc8713116100e95780639fbc8713146103ff5780639fc28f8114610412578063a0c7489d1461041a578063a22cb4651461042257610205565b806359112bb3146103b1578063715018a6146103dc5780638da5cb5b146103e45780638dc251e3146103ec57610205565b8063274141631161019d57806348375f841161016c57806348375f8414610342578063483b81ef1461036257806349d721471461036b5780634e1273f41461037e5780634e6836ab1461039e57610205565b806327414163146102e25780632a55205a146102f55780632eb2c2d614610327578063445375201461033a57610205565b80630e89341c116101d95780630e89341c1461027c578063156e29f61461029c5780631763b4a8146102af5780631ff4a420146102c257610205565b8062fdd58e1461020a578063012e46b61461023057806301ffc9a71461025457806302fe530514610267575b600080fd5b61021d6102183660046121b7565b6104f4565b6040519081526020015b60405180910390f35b60005461024490600160a81b900460ff1681565b6040519015158152602001610227565b6102446102623660046123b4565b61058d565b61027a6102753660046123ec565b6105f0565b005b61028f61028a366004612439565b610662565b6040516102279190612633565b61027a6102aa3660046121e0565b6106f6565b61027a6102bd366004612212565b610750565b61021d6102d0366004612439565b60026020526000908152604090205481565b61027a6102f03660046121e0565b61094c565b610308610303366004612451565b610995565b604080516001600160a01b039093168352602083019190915201610227565b61027a610335366004612006565b610a2c565b61027a610ac3565b610355610350366004612439565b610b07565b604051610227919061259a565b61021d60015481565b610308610379366004612451565b610b8f565b61039161038c3660046122ea565b610bd5565b60405161022791906125f2565b61027a6103ac36600461227a565b610d36565b6009546103c4906001600160a01b031681565b6040516001600160a01b039091168152602001610227565b61027a610f4f565b6103c4610f8a565b61027a6103fa366004611fba565b610f9a565b6005546103c4906001600160a01b031681565b61035561109f565b61027a611114565b61027a61043036600461217d565b611158565b61027a610443366004612439565b611167565b61027a610456366004612451565b6111e3565b61027a61046936600461210d565b61126b565b60005461024490600160a01b900460ff1681565b610244610490366004611fd4565b6001600160a01b03918216600090815260076020908152604080832093909416825291909152205460ff1690565b61027a6112c0565b61027a6104d43660046120ab565b6112fe565b61027a6104e7366004611fba565b611385565b61027a611425565b60006001600160a01b0383166105655760405162461bcd60e51b815260206004820152602b60248201527f455243313135353a2062616c616e636520717565727920666f7220746865207a60448201526a65726f206164647265737360a81b60648201526084015b60405180910390fd5b5060009081526006602090815260408083206001600160a01b03949094168352929052205490565b60006001600160e01b0319821663152a902d60e11b14806105be57506001600160e01b0319821663155c914760e31b145b806105d957506001600160e01b03198216631189900560e11b145b806105e857506105e882611463565b90505b919050565b336105f9610f8a565b6001600160a01b03161461061f5760405162461bcd60e51b815260040161055c9061271d565b610628816114b3565b7fbabd00c52f3ac8b66511ad0c5d9680f0417ad32bf6c8fede4cb2d45820353bc5816040516106579190612633565b60405180910390a150565b60606008805461067190612855565b80601f016020809104026020016040519081016040528092919081815260200182805461069d90612855565b80156106ea5780601f106106bf576101008083540402835291602001916106ea565b820191906000526020600020905b8154815290600101906020018083116106cd57829003601f168201915b50505050509050919050565b336106ff610f8a565b6001600160a01b0316146107255760405162461bcd60e51b815260040161055c9061271d565b61074b83838360405180604001604052806002815260200161060f60f31b8152506114c6565b505050565b33610759610f8a565b6001600160a01b03161461077f5760405162461bcd60e51b815260040161055c9061271d565b8281146107c25760405162461bcd60e51b8152602060048201526011602482015270082e4e4c2f2e640c8dedce840dac2e8c6d607b1b604482015260640161055c565b6000805b82811015610814578383828181106107ee57634e487b7160e01b600052603260045260246000fd5b905060200201358261080091906127fe565b91508061080c816128bc565b9150506107c6565b5061271081111561085e5760405162461bcd60e51b81526020600482015260146024820152730546f74616c20736861726573203e2031303030360641b604482015260640161055c565b61086a60036000611d8a565b60005b8481101561094457600360405180604001604052808888858181106108a257634e487b7160e01b600052603260045260246000fd5b90506020020160208101906108b79190611fba565b6001600160a01b031681526020018686858181106108e557634e487b7160e01b600052603260045260246000fd5b60209081029290920135909252835460018082018655600095865294829020845160029092020180546001600160a01b0319166001600160a01b039092169190911781559201519190920155508061093c816128bc565b91505061086d565b505050505050565b6009546001600160a01b031633146107255760405162461bcd60e51b815260206004820152600c60248201526b155b985d5d1a1bdc9a5e995960a21b604482015260640161055c565b6000805481908190600160a01b900460ff1615610a10576000858152600260205260409020546109e157612710600154856109d09190612836565b6109da9190612816565b9050610a0b565b600085815260026020526040902054612710906109fe9086612836565b610a089190612816565b90505b610a14565b5060005b6005546001600160a01b0316925090505b9250929050565b6001600160a01b038516331480610a485750610a488533610490565b610aaf5760405162461bcd60e51b815260206004820152603260248201527f455243313135353a207472616e736665722063616c6c6572206973206e6f74206044820152711bdddb995c881b9bdc88185c1c1c9bdd995960721b606482015260840161055c565b610abc8585858585611598565b5050505050565b33610acc610f8a565b6001600160a01b031614610af25760405162461bcd60e51b815260040161055c9061271d565b6000805460ff60a81b1916600160a81b179055565b606060046000838152602001908152602001600020805480602002602001604051908101604052809291908181526020016000905b82821015610b84576000848152602090819020604080518082019091526002850290910180546001600160a01b03168252600190810154828401529083529092019101610b3c565b505050509050919050565b60046020528160005260406000208181548110610bab57600080fd5b6000918252602090912060029091020180546001909101546001600160a01b039091169250905082565b60608151835114610c3a5760405162461bcd60e51b815260206004820152602960248201527f455243313135353a206163636f756e747320616e6420696473206c656e677468604482015268040dad2e6dac2e8c6d60bb1b606482015260840161055c565b600083516001600160401b03811115610c6357634e487b7160e01b600052604160045260246000fd5b604051908082528060200260200182016040528015610c8c578160200160208202803683370190505b50905060005b8451811015610d2e57610cf3858281518110610cbe57634e487b7160e01b600052603260045260246000fd5b6020026020010151858381518110610ce657634e487b7160e01b600052603260045260246000fd5b60200260200101516104f4565b828281518110610d1357634e487b7160e01b600052603260045260246000fd5b6020908102919091010152610d27816128bc565b9050610c92565b509392505050565b33610d3f610f8a565b6001600160a01b031614610d655760405162461bcd60e51b815260040161055c9061271d565b838214610da85760405162461bcd60e51b8152602060048201526011602482015270082e4e4c2f2e640c8dedce840dac2e8c6d607b1b604482015260640161055c565b6000805b83811015610dfa57848482818110610dd457634e487b7160e01b600052603260045260246000fd5b9050602002013582610de691906127fe565b915080610df2816128bc565b915050610dac565b50612710811115610e445760405162461bcd60e51b81526020600482015260146024820152730546f74616c20736861726573203e2031303030360641b604482015260640161055c565b6000828152600460205260408120610e5b91611d8a565b60005b85811015610f4657600460008481526020019081526020016000206040518060400160405280898985818110610ea457634e487b7160e01b600052603260045260246000fd5b9050602002016020810190610eb99190611fba565b6001600160a01b03168152602001878785818110610ee757634e487b7160e01b600052603260045260246000fd5b60209081029290920135909252835460018082018655600095865294829020845160029092020180546001600160a01b0319166001600160a01b0390921691909117815592015191909201555080610f3e816128bc565b915050610e5e565b50505050505050565b33610f58610f8a565b6001600160a01b031614610f7e5760405162461bcd60e51b815260040161055c9061271d565b610f88600061174b565b565b6000546001600160a01b03165b90565b33610fa3610f8a565b6001600160a01b031614610fc95760405162461bcd60e51b815260040161055c9061271d565b6001600160a01b0381166110145760405162461bcd60e51b815260206004820152601260248201527143616e74207365742030206164647265737360701b604482015260640161055c565b6005546001600160a01b038281169116141561107d5760405162461bcd60e51b815260206004820152602260248201527f54686973206164647265737320697320616c726561647920612072656365697660448201526132b960f11b606482015260840161055c565b600580546001600160a01b0319166001600160a01b0392909216919091179055565b60606003805480602002602001604051908101604052809291908181526020016000905b8282101561110b576000848152602090819020604080518082019091526002850290910180546001600160a01b031682526001908101548284015290835290920191016110c3565b50505050905090565b3361111d610f8a565b6001600160a01b0316146111435760405162461bcd60e51b815260040161055c9061271d565b6000805460ff60a01b1916600160a01b179055565b61116333838361179b565b5050565b33611170610f8a565b6001600160a01b0316146111965760405162461bcd60e51b815260040161055c9061271d565b6123288111156111de5760405162461bcd60e51b8152602060048201526013602482015272526f79616c7479206973206f7665722039302560681b604482015260640161055c565b600155565b336111ec610f8a565b6001600160a01b0316146112125760405162461bcd60e51b815260040161055c9061271d565b61232882111561125a5760405162461bcd60e51b8152602060048201526013602482015272526f79616c7479206973206f7665722039302560681b604482015260640161055c565b600090815260026020526040902055565b33611274610f8a565b6001600160a01b03161461129a5760405162461bcd60e51b815260040161055c9061271d565b61074b83838360405180604001604052806002815260200161060f60f31b81525061187c565b336112c9610f8a565b6001600160a01b0316146112ef5760405162461bcd60e51b815260040161055c9061271d565b6000805460ff60a01b19169055565b6001600160a01b03851633148061131a575061131a8533610490565b6113785760405162461bcd60e51b815260206004820152602960248201527f455243313135353a2063616c6c6572206973206e6f74206f776e6572206e6f7260448201526808185c1c1c9bdd995960ba1b606482015260840161055c565b610abc85858585856119e4565b3361138e610f8a565b6001600160a01b0316146113b45760405162461bcd60e51b815260040161055c9061271d565b6001600160a01b0381166114195760405162461bcd60e51b815260206004820152602660248201527f4f776e61626c653a206e6577206f776e657220697320746865207a65726f206160448201526564647265737360d01b606482015260840161055c565b6114228161174b565b50565b3361142e610f8a565b6001600160a01b0316146114545760405162461bcd60e51b815260040161055c9061271d565b6000805460ff60a81b19169055565b60006001600160e01b03198216636cdb3d1360e11b148061149457506001600160e01b031982166303a24d0760e21b145b806105e857506301ffc9a760e01b6001600160e01b03198316146105e8565b8051611163906008906020840190611dab565b6001600160a01b0384166114ec5760405162461bcd60e51b815260040161055c9061279a565b33611506816000876114fd88611afc565b610abc88611afc565b60008481526006602090815260408083206001600160a01b0389168452909152812080548592906115389084906127fe565b909155505060408051858152602081018590526001600160a01b0380881692600092918516917fc3d58168c5ae7397731d063d5bbf3d657854427343f4c083240f7aacaa2d0f62910160405180910390a4610abc81600087878787611b55565b81518351146115b95760405162461bcd60e51b815260040161055c90612752565b6001600160a01b0384166115df5760405162461bcd60e51b815260040161055c9061268e565b3360005b84518110156116e557600085828151811061160e57634e487b7160e01b600052603260045260246000fd5b60200260200101519050600085838151811061163a57634e487b7160e01b600052603260045260246000fd5b60209081029190910181015160008481526006835260408082206001600160a01b038e16835290935291909120549091508181101561168b5760405162461bcd60e51b815260040161055c906126d3565b60008381526006602090815260408083206001600160a01b038e8116855292528083208585039055908b168252812080548492906116ca9084906127fe565b92505081905550505050806116de906128bc565b90506115e3565b50846001600160a01b0316866001600160a01b0316826001600160a01b03167f4a39dc06d4c0dbc64b70af90fd698a233a518aa5d07e595d983b8c0526c8f7fb8787604051611735929190612605565b60405180910390a4610944818787878787611cc0565b600080546001600160a01b038381166001600160a01b0319831681178455604051919092169283917f8be0079c531659141344cd1fd0a4f28419497f9722a3daafe3b4186f6b6457e09190a35050565b816001600160a01b0316836001600160a01b0316141561180f5760405162461bcd60e51b815260206004820152602960248201527f455243313135353a2073657474696e6720617070726f76616c20737461747573604482015268103337b91039b2b63360b91b606482015260840161055c565b6001600160a01b03838116600081815260076020908152604080832094871680845294825291829020805460ff191686151590811790915591519182527f17307eab39ab6107e8899845ad3d59bd9653f200f220920489ca2b5937696c31910160405180910390a3505050565b6001600160a01b0384166118a25760405162461bcd60e51b815260040161055c9061279a565b81518351146118c35760405162461bcd60e51b815260040161055c90612752565b3360005b845181101561197c578381815181106118f057634e487b7160e01b600052603260045260246000fd5b60200260200101516006600087848151811061191c57634e487b7160e01b600052603260045260246000fd5b602002602001015181526020019081526020016000206000886001600160a01b03166001600160a01b03168152602001908152602001600020600082825461196491906127fe565b90915550819050611974816128bc565b9150506118c7565b50846001600160a01b031660006001600160a01b0316826001600160a01b03167f4a39dc06d4c0dbc64b70af90fd698a233a518aa5d07e595d983b8c0526c8f7fb87876040516119cd929190612605565b60405180910390a4610abc81600087878787611cc0565b6001600160a01b038416611a0a5760405162461bcd60e51b815260040161055c9061268e565b33611a1a8187876114fd88611afc565b60008481526006602090815260408083206001600160a01b038a16845290915290205483811015611a5d5760405162461bcd60e51b815260040161055c906126d3565b60008581526006602090815260408083206001600160a01b038b8116855292528083208785039055908816825281208054869290611a9c9084906127fe565b909155505060408051868152602081018690526001600160a01b03808916928a821692918616917fc3d58168c5ae7397731d063d5bbf3d657854427343f4c083240f7aacaa2d0f62910160405180910390a4610f46828888888888611b55565b60408051600180825281830190925260609160009190602080830190803683370190505090508281600081518110611b4457634e487b7160e01b600052603260045260246000fd5b602090810291909101015292915050565b6001600160a01b0384163b156109445760405163f23a6e6160e01b81526001600160a01b0385169063f23a6e6190611b999089908990889088908890600401612555565b602060405180830381600087803b158015611bb357600080fd5b505af1925050508015611be3575060408051601f3d908101601f19168201909252611be0918101906123d0565b60015b611c9057611bef612903565b806308c379a01415611c295750611c0461291a565b80611c0f5750611c2b565b8060405162461bcd60e51b815260040161055c9190612633565b505b60405162461bcd60e51b815260206004820152603460248201527f455243313135353a207472616e7366657220746f206e6f6e20455243313135356044820152732932b1b2b4bb32b91034b6b83632b6b2b73a32b960611b606482015260840161055c565b6001600160e01b0319811663f23a6e6160e01b14610f465760405162461bcd60e51b815260040161055c90612646565b6001600160a01b0384163b156109445760405163bc197c8160e01b81526001600160a01b0385169063bc197c8190611d0490899089908890889088906004016124f7565b602060405180830381600087803b158015611d1e57600080fd5b505af1925050508015611d4e575060408051601f3d908101601f19168201909252611d4b918101906123d0565b60015b611d5a57611bef612903565b6001600160e01b0319811663bc197c8160e01b14610f465760405162461bcd60e51b815260040161055c90612646565b50805460008255600202906000526020600020908101906114229190611e2f565b828054611db790612855565b90600052602060002090601f016020900481019282611dd95760008555611e1f565b82601f10611df257805160ff1916838001178555611e1f565b82800160010185558215611e1f579182015b82811115611e1f578251825591602001919060010190611e04565b50611e2b929150611e55565b5090565b5b80821115611e2b5780546001600160a01b031916815560006001820155600201611e30565b5b80821115611e2b5760008155600101611e56565b60006001600160401b03831115611e8357611e836128ed565b604051611e9a601f8501601f191660200182612890565b809150838152848484011115611eaf57600080fd5b83836020830137600060208583010152509392505050565b80356001600160a01b03811681146105eb57600080fd5b60008083601f840112611eef578182fd5b5081356001600160401b03811115611f05578182fd5b6020830191508360208260051b8501011115610a2557600080fd5b600082601f830112611f30578081fd5b81356020611f3d826127db565b604051611f4a8282612890565b8381528281019150858301600585901b87018401881015611f69578586fd5b855b85811015611f8757813584529284019290840190600101611f6b565b5090979650505050505050565b600082601f830112611fa4578081fd5b611fb383833560208501611e6a565b9392505050565b600060208284031215611fcb578081fd5b611fb382611ec7565b60008060408385031215611fe6578081fd5b611fef83611ec7565b9150611ffd60208401611ec7565b90509250929050565b600080600080600060a0868803121561201d578081fd5b61202686611ec7565b945061203460208701611ec7565b935060408601356001600160401b038082111561204f578283fd5b61205b89838a01611f20565b94506060880135915080821115612070578283fd5b61207c89838a01611f20565b93506080880135915080821115612091578283fd5b5061209e88828901611f94565b9150509295509295909350565b600080600080600060a086880312156120c2578081fd5b6120cb86611ec7565b94506120d960208701611ec7565b9350604086013592506060860135915060808601356001600160401b03811115612101578182fd5b61209e88828901611f94565b600080600060608486031215612121578283fd5b61212a84611ec7565b925060208401356001600160401b0380821115612145578384fd5b61215187838801611f20565b93506040860135915080821115612166578283fd5b5061217386828701611f20565b9150509250925092565b6000806040838503121561218f578182fd5b61219883611ec7565b9150602083013580151581146121ac578182fd5b809150509250929050565b600080604083850312156121c9578081fd5b6121d283611ec7565b946020939093013593505050565b6000806000606084860312156121f4578081fd5b6121fd84611ec7565b95602085013595506040909401359392505050565b60008060008060408587031215612227578182fd5b84356001600160401b038082111561223d578384fd5b61224988838901611ede565b90965094506020870135915080821115612261578384fd5b5061226e87828801611ede565b95989497509550505050565b600080600080600060608688031215612291578283fd5b85356001600160401b03808211156122a7578485fd5b6122b389838a01611ede565b909750955060208801359150808211156122cb578485fd5b506122d888828901611ede565b96999598509660400135949350505050565b600080604083850312156122fc578182fd5b82356001600160401b0380821115612312578384fd5b818501915085601f830112612325578384fd5b81356020612332826127db565b60405161233f8282612890565b8381528281019150858301600585901b870184018b101561235e578889fd5b8896505b848710156123875761237381611ec7565b835260019690960195918301918301612362565b509650508601359250508082111561239d578283fd5b506123aa85828601611f20565b9150509250929050565b6000602082840312156123c5578081fd5b8135611fb3816129ab565b6000602082840312156123e1578081fd5b8151611fb3816129ab565b6000602082840312156123fd578081fd5b81356001600160401b03811115612412578182fd5b8201601f81018413612422578182fd5b61243184823560208401611e6a565b949350505050565b60006020828403121561244a578081fd5b5035919050565b60008060408385031215612463578182fd5b50508035926020909101359150565b6000815180845260208085019450808401835b838110156124a157815187529582019590820190600101612485565b509495945050505050565b60008151808452815b818110156124d1576020818501810151868301820152016124b5565b818111156124e25782602083870101525b50601f01601f19169290920160200192915050565b6001600160a01b0386811682528516602082015260a06040820181905260009061252390830186612472565b82810360608401526125358186612472565b9050828103608084015261254981856124ac565b98975050505050505050565b6001600160a01b03868116825285166020820152604081018490526060810183905260a06080820181905260009061258f908301846124ac565b979650505050505050565b602080825282518282018190526000919060409081850190868401855b828110156125e557815180516001600160a01b031685528601518685015292840192908501906001016125b7565b5091979650505050505050565b600060208252611fb36020830184612472565b6000604082526126186040830185612472565b828103602084015261262a8185612472565b95945050505050565b600060208252611fb360208301846124ac565b60208082526028908201527f455243313135353a204552433131353552656365697665722072656a656374656040820152676420746f6b656e7360c01b606082015260800190565b60208082526025908201527f455243313135353a207472616e7366657220746f20746865207a65726f206164604082015264647265737360d81b606082015260800190565b6020808252602a908201527f455243313135353a20696e73756666696369656e742062616c616e636520666f60408201526939103a3930b739b332b960b11b606082015260800190565b6020808252818101527f4f776e61626c653a2063616c6c6572206973206e6f7420746865206f776e6572604082015260600190565b60208082526028908201527f455243313135353a2069647320616e6420616d6f756e7473206c656e677468206040820152670dad2e6dac2e8c6d60c31b606082015260800190565b60208082526021908201527f455243313135353a206d696e7420746f20746865207a65726f206164647265736040820152607360f81b606082015260800190565b60006001600160401b038211156127f4576127f46128ed565b5060051b60200190565b60008219821115612811576128116128d7565b500190565b60008261283157634e487b7160e01b81526012600452602481fd5b500490565b6000816000190483118215151615612850576128506128d7565b500290565b600181811c9082168061286957607f821691505b6020821081141561288a57634e487b7160e01b600052602260045260246000fd5b50919050565b601f8201601f191681016001600160401b03811182821017156128b5576128b56128ed565b6040525050565b60006000198214156128d0576128d06128d7565b5060010190565b634e487b7160e01b600052601160045260246000fd5b634e487b7160e01b600052604160045260246000fd5b600060033d1115610f9757600481823e5160e01c90565b600060443d101561292a57610f97565b6040516003193d81016004833e81513d6001600160401b03816024840111818411171561295b575050505050610f97565b828501915081518181111561297557505050505050610f97565b843d870101602082850101111561299157505050505050610f97565b6129a060208286010187612890565b509094505050505090565b6001600160e01b03198116811461142257600080fdfea264697066735822122011737c0f8b8bb99bd3b294414716fea0d4db4b9344ba0a7977e6f45d9519dfcb64736f6c63430008030033",
    "linkReferences": {},
    "deployedLinkReferences": {}
}